{
  "_format": "hh-sol-artifact-1",
  "contractName": "Exchange",
  "sourceName": "contracts/exchange.sol",
  "abi": [
    {
      "inputs": [
        {
          "internalType": "address",
          "name": "_tokenAddress",
          "type": "address"
        }
      ],
      "stateMutability": "nonpayable",
      "type": "constructor"
    },
    {
      "anonymous": false,
      "inputs": [
        {
          "indexed": true,
          "internalType": "address",
          "name": "owner",
          "type": "address"
        },
        {
          "indexed": true,
          "internalType": "address",
          "name": "spender",
          "type": "address"
        },
        {
          "indexed": false,
          "internalType": "uint256",
          "name": "value",
          "type": "uint256"
        }
      ],
      "name": "Approval",
      "type": "event"
    },
    {
      "anonymous": false,
      "inputs": [
        {
          "indexed": true,
          "internalType": "address",
          "name": "previousOwner",
          "type": "address"
        },
        {
          "indexed": true,
          "internalType": "address",
          "name": "newOwner",
          "type": "address"
        }
      ],
      "name": "OwnershipTransferred",
      "type": "event"
    },
    {
      "anonymous": false,
      "inputs": [
        {
          "indexed": true,
          "internalType": "address",
          "name": "from",
          "type": "address"
        },
        {
          "indexed": true,
          "internalType": "address",
          "name": "to",
          "type": "address"
        },
        {
          "indexed": false,
          "internalType": "uint256",
          "name": "value",
          "type": "uint256"
        }
      ],
      "name": "Transfer",
      "type": "event"
    },
    {
      "inputs": [
        {
          "internalType": "uint256",
          "name": "_tokenAmount",
          "type": "uint256"
        }
      ],
      "name": "addLiquidity",
      "outputs": [
        {
          "internalType": "uint256",
          "name": "",
          "type": "uint256"
        }
      ],
      "stateMutability": "payable",
      "type": "function"
    },
    {
      "inputs": [
        {
          "internalType": "address",
          "name": "",
          "type": "address"
        },
        {
          "internalType": "address",
          "name": "",
          "type": "address"
        }
      ],
      "name": "allowance",
      "outputs": [
        {
          "internalType": "uint256",
          "name": "",
          "type": "uint256"
        }
      ],
      "stateMutability": "view",
      "type": "function"
    },
    {
      "inputs": [
        {
          "internalType": "address",
          "name": "_spender",
          "type": "address"
        },
        {
          "internalType": "uint256",
          "name": "_value",
          "type": "uint256"
        }
      ],
      "name": "approve",
      "outputs": [
        {
          "internalType": "bool",
          "name": "",
          "type": "bool"
        }
      ],
      "stateMutability": "nonpayable",
      "type": "function"
    },
    {
      "inputs": [
        {
          "internalType": "address",
          "name": "",
          "type": "address"
        }
      ],
      "name": "balanceOf",
      "outputs": [
        {
          "internalType": "uint256",
          "name": "",
          "type": "uint256"
        }
      ],
      "stateMutability": "view",
      "type": "function"
    },
    {
      "inputs": [
        {
          "internalType": "address",
          "name": "account",
          "type": "address"
        },
        {
          "internalType": "uint256",
          "name": "amount",
          "type": "uint256"
        }
      ],
      "name": "burn",
      "outputs": [],
      "stateMutability": "nonpayable",
      "type": "function"
    },
    {
      "inputs": [],
      "name": "decimals",
      "outputs": [
        {
          "internalType": "uint256",
          "name": "",
          "type": "uint256"
        }
      ],
      "stateMutability": "view",
      "type": "function"
    },
    {
      "inputs": [
        {
          "internalType": "uint256",
          "name": "_tokenSold",
          "type": "uint256"
        }
      ],
      "name": "getEthAmount",
      "outputs": [
        {
          "internalType": "uint256",
          "name": "",
          "type": "uint256"
        }
      ],
      "stateMutability": "view",
      "type": "function"
    },
    {
      "inputs": [
        {
          "internalType": "uint256",
          "name": "y",
          "type": "uint256"
        },
        {
          "internalType": "uint256",
          "name": "x",
          "type": "uint256"
        }
      ],
      "name": "getPrice",
      "outputs": [
        {
          "internalType": "uint256",
          "name": "",
          "type": "uint256"
        }
      ],
      "stateMutability": "pure",
      "type": "function"
    },
    {
      "inputs": [
        {
          "internalType": "uint256",
          "name": "_ethSold",
          "type": "uint256"
        }
      ],
      "name": "getTokenAmount",
      "outputs": [
        {
          "internalType": "uint256",
          "name": "",
          "type": "uint256"
        }
      ],
      "stateMutability": "view",
      "type": "function"
    },
    {
      "inputs": [],
      "name": "getTokenReserves",
      "outputs": [
        {
          "internalType": "uint256",
          "name": "",
          "type": "uint256"
        }
      ],
      "stateMutability": "view",
      "type": "function"
    },
    {
      "inputs": [],
      "name": "getTotalSupply",
      "outputs": [
        {
          "internalType": "uint256",
          "name": "",
          "type": "uint256"
        }
      ],
      "stateMutability": "nonpayable",
      "type": "function"
    },
    {
      "inputs": [
        {
          "internalType": "address",
          "name": "account",
          "type": "address"
        },
        {
          "internalType": "uint256",
          "name": "amount",
          "type": "uint256"
        }
      ],
      "name": "mint",
      "outputs": [],
      "stateMutability": "nonpayable",
      "type": "function"
    },
    {
      "inputs": [],
      "name": "name",
      "outputs": [
        {
          "internalType": "string",
          "name": "",
          "type": "string"
        }
      ],
      "stateMutability": "view",
      "type": "function"
    },
    {
      "inputs": [],
      "name": "owner",
      "outputs": [
        {
          "internalType": "address",
          "name": "",
          "type": "address"
        }
      ],
      "stateMutability": "view",
      "type": "function"
    },
    {
      "inputs": [
        {
          "internalType": "uint256",
          "name": "_amount",
          "type": "uint256"
        }
      ],
      "name": "removeLiquidity",
      "outputs": [
        {
          "internalType": "uint256",
          "name": "",
          "type": "uint256"
        },
        {
          "internalType": "uint256",
          "name": "",
          "type": "uint256"
        }
      ],
      "stateMutability": "nonpayable",
      "type": "function"
    },
    {
      "inputs": [],
      "name": "renounceOwnership",
      "outputs": [],
      "stateMutability": "nonpayable",
      "type": "function"
    },
    {
      "inputs": [
        {
          "internalType": "uint256",
          "name": "_baseTokensRequested",
          "type": "uint256"
        }
      ],
      "name": "swapEthToToken",
      "outputs": [],
      "stateMutability": "payable",
      "type": "function"
    },
    {
      "inputs": [
        {
          "internalType": "uint256",
          "name": "_tokenSold",
          "type": "uint256"
        },
        {
          "internalType": "uint256",
          "name": "_baseEthRequested",
          "type": "uint256"
        }
      ],
      "name": "swapTokenToEth",
      "outputs": [],
      "stateMutability": "payable",
      "type": "function"
    },
    {
      "inputs": [],
      "name": "symbol",
      "outputs": [
        {
          "internalType": "string",
          "name": "",
          "type": "string"
        }
      ],
      "stateMutability": "view",
      "type": "function"
    },
    {
      "inputs": [],
      "name": "token",
      "outputs": [
        {
          "internalType": "contract Token",
          "name": "",
          "type": "address"
        }
      ],
      "stateMutability": "view",
      "type": "function"
    },
    {
      "inputs": [],
      "name": "tokenAddress",
      "outputs": [
        {
          "internalType": "address",
          "name": "",
          "type": "address"
        }
      ],
      "stateMutability": "view",
      "type": "function"
    },
    {
      "inputs": [
        {
          "internalType": "address",
          "name": "_to",
          "type": "address"
        },
        {
          "internalType": "uint256",
          "name": "_value",
          "type": "uint256"
        }
      ],
      "name": "transfer",
      "outputs": [
        {
          "internalType": "bool",
          "name": "",
          "type": "bool"
        }
      ],
      "stateMutability": "nonpayable",
      "type": "function"
    },
    {
      "inputs": [
        {
          "internalType": "address",
          "name": "_from",
          "type": "address"
        },
        {
          "internalType": "address",
          "name": "_to",
          "type": "address"
        },
        {
          "internalType": "uint256",
          "name": "_value",
          "type": "uint256"
        }
      ],
      "name": "transferFrom",
      "outputs": [
        {
          "internalType": "bool",
          "name": "",
          "type": "bool"
        }
      ],
      "stateMutability": "nonpayable",
      "type": "function"
    },
    {
      "inputs": [
        {
          "internalType": "address",
          "name": "newOwner",
          "type": "address"
        }
      ],
      "name": "transferOwnership",
      "outputs": [],
      "stateMutability": "nonpayable",
      "type": "function"
    }
  ],
  "bytecode": "0x60806040523480156200001157600080fd5b5060405162002e2138038062002e218339818101604052810190620000379190620003ca565b6040518060400160405280600881526020017f4c5020546f6b656e0000000000000000000000000000000000000000000000008152506040518060400160405280600281526020017f4c5000000000000000000000000000000000000000000000000000000000000081525060126000620000c7620000bb6200023760201b60201c565b6200023f60201b60201c565b8360019080519060200190620000df92919062000303565b508260029080519060200190620000f892919062000303565b508160038190555080600481905550600454600560003373ffffffffffffffffffffffffffffffffffffffff1673ffffffffffffffffffffffffffffffffffffffff1681526020019081526020016000208190555050505050600073ffffffffffffffffffffffffffffffffffffffff168173ffffffffffffffffffffffffffffffffffffffff1614156200018c57600080fd5b80600760006101000a81548173ffffffffffffffffffffffffffffffffffffffff021916908373ffffffffffffffffffffffffffffffffffffffff160217905550600760009054906101000a900473ffffffffffffffffffffffffffffffffffffffff16600860006101000a81548173ffffffffffffffffffffffffffffffffffffffff021916908373ffffffffffffffffffffffffffffffffffffffff16021790555050620004b4565b600033905090565b60008060009054906101000a900473ffffffffffffffffffffffffffffffffffffffff169050816000806101000a81548173ffffffffffffffffffffffffffffffffffffffff021916908373ffffffffffffffffffffffffffffffffffffffff1602179055508173ffffffffffffffffffffffffffffffffffffffff168173ffffffffffffffffffffffffffffffffffffffff167f8be0079c531659141344cd1fd0a4f28419497f9722a3daafe3b4186f6b6457e060405160405180910390a35050565b828054620003119062000430565b90600052602060002090601f01602090048101928262000335576000855562000381565b82601f106200035057805160ff191683800117855562000381565b8280016001018555821562000381579182015b828111156200038057825182559160200191906001019062000363565b5b50905062000390919062000394565b5090565b5b80821115620003af57600081600090555060010162000395565b5090565b600081519050620003c4816200049a565b92915050565b600060208284031215620003e357620003e262000495565b5b6000620003f384828501620003b3565b91505092915050565b6000620004098262000410565b9050919050565b600073ffffffffffffffffffffffffffffffffffffffff82169050919050565b600060028204905060018216806200044957607f821691505b6020821081141562000460576200045f62000466565b5b50919050565b7f4e487b7100000000000000000000000000000000000000000000000000000000600052602260045260246000fd5b600080fd5b620004a581620003fc565b8114620004b157600080fd5b50565b61295d80620004c46000396000f3fe60806040526004361061014b5760003560e01c80639c8f9f23116100b6578063b9cf50051161006f578063b9cf5005146104a4578063c2507ac1146104cf578063c4e41b221461050c578063dd62ed3e14610537578063f2fde38b14610574578063fc0c546a1461059d5761014b565b80639c8f9f231461039d5780639d76ea58146103db5780639dc29fac14610406578063a2cdda4b1461042f578063a9059cbb1461044b578063b698631c146104885761014b565b80635cf4ee91116101085780635cf4ee911461027957806370a08231146102b6578063715018a6146102f35780638da5cb5b1461030a5780638fc7a25d1461033557806395d89b41146103725761014b565b806306fdde0314610150578063095ea7b31461017b57806323b872dd146101b8578063313ce567146101f557806340c10f191461022057806351c6590a14610249575b600080fd5b34801561015c57600080fd5b506101656105c8565b604051610172919061213e565b60405180910390f35b34801561018757600080fd5b506101a2600480360381019061019d9190611d4a565b610656565b6040516101af9190612108565b60405180910390f35b3480156101c457600080fd5b506101df60048036038101906101da9190611cf7565b610781565b6040516101ec9190612108565b60405180910390f35b34801561020157600080fd5b5061020a61086f565b6040516102179190612300565b60405180910390f35b34801561022c57600080fd5b5061024760048036038101906102429190611d4a565b610875565b005b610263600480360381019061025e9190611db7565b61096f565b6040516102709190612300565b60405180910390f35b34801561028557600080fd5b506102a0600480360381019061029b9190611e11565b610c49565b6040516102ad9190612300565b60405180910390f35b3480156102c257600080fd5b506102dd60048036038101906102d89190611c8a565b610cba565b6040516102ea9190612300565b60405180910390f35b3480156102ff57600080fd5b50610308610cd2565b005b34801561031657600080fd5b5061031f610d5a565b60405161032c919061208d565b60405180910390f35b34801561034157600080fd5b5061035c60048036038101906103579190611db7565b610d83565b6040516103699190612300565b60405180910390f35b34801561037e57600080fd5b50610387610de6565b604051610394919061213e565b60405180910390f35b3480156103a957600080fd5b506103c460048036038101906103bf9190611db7565b610e74565b6040516103d292919061231b565b60405180910390f35b3480156103e757600080fd5b506103f0611013565b6040516103fd919061208d565b60405180910390f35b34801561041257600080fd5b5061042d60048036038101906104289190611d4a565b611039565b005b61044960048036038101906104449190611e11565b6110b7565b005b34801561045757600080fd5b50610472600480360381019061046d9190611d4a565b611214565b60405161047f9190612108565b60405180910390f35b6104a2600480360381019061049d9190611db7565b611278565b005b3480156104b057600080fd5b506104b9611396565b6040516104c69190612300565b60405180910390f35b3480156104db57600080fd5b506104f660048036038101906104f19190611db7565b611448565b6040516105039190612300565b60405180910390f35b34801561051857600080fd5b506105216114ab565b60405161052e9190612300565b60405180910390f35b34801561054357600080fd5b5061055e60048036038101906105599190611cb7565b6114b5565b60405161056b9190612300565b60405180910390f35b34801561058057600080fd5b5061059b60048036038101906105969190611c8a565b6114da565b005b3480156105a957600080fd5b506105b26115d2565b6040516105bf9190612123565b60405180910390f35b600180546105d590612514565b80601f016020809104026020016040519081016040528092919081815260200182805461060190612514565b801561064e5780601f106106235761010080835404028352916020019161064e565b820191906000526020600020905b81548152906001019060200180831161063157829003601f168201915b505050505081565b60008073ffffffffffffffffffffffffffffffffffffffff168373ffffffffffffffffffffffffffffffffffffffff16141561069157600080fd5b81600660003373ffffffffffffffffffffffffffffffffffffffff1673ffffffffffffffffffffffffffffffffffffffff16815260200190815260200160002060008573ffffffffffffffffffffffffffffffffffffffff1673ffffffffffffffffffffffffffffffffffffffff168152602001908152602001600020819055508273ffffffffffffffffffffffffffffffffffffffff163373ffffffffffffffffffffffffffffffffffffffff167f8c5be1e5ebec7d5bd14f71427d1e84f3dd0314c0f7b2291e5b200ac8c7c3b9258460405161076f9190612300565b60405180910390a36001905092915050565b6000600560008573ffffffffffffffffffffffffffffffffffffffff1673ffffffffffffffffffffffffffffffffffffffff168152602001908152602001600020548211156107cf57600080fd5b600660008573ffffffffffffffffffffffffffffffffffffffff1673ffffffffffffffffffffffffffffffffffffffff16815260200190815260200160002060003373ffffffffffffffffffffffffffffffffffffffff1673ffffffffffffffffffffffffffffffffffffffff1681526020019081526020016000205482111561085857600080fd5b6108638484846115f8565b50600190509392505050565b60035481565b61087d6117bb565b73ffffffffffffffffffffffffffffffffffffffff1661089b610d5a565b73ffffffffffffffffffffffffffffffffffffffff16146108f1576040517f08c379a00000000000000000000000000000000000000000000000000000000081526004016108e890612240565b60405180910390fd5b600073ffffffffffffffffffffffffffffffffffffffff168273ffffffffffffffffffffffffffffffffffffffff161415610961576040517f08c379a0000000000000000000000000000000000000000000000000000000008152600401610958906122a0565b60405180910390fd5b61096b82826117c3565b5050565b60008061097a611396565b1415610a4a57600860009054906101000a900473ffffffffffffffffffffffffffffffffffffffff1673ffffffffffffffffffffffffffffffffffffffff166323b872dd3330856040518463ffffffff1660e01b81526004016109df939291906120a8565b602060405180830381600087803b1580156109f957600080fd5b505af1158015610a0d573d6000803e3d6000fd5b505050506040513d601f19601f82011682018060405250810190610a319190611d8a565b506000479050610a4133826117c3565b80915050610c44565b60003447610a589190612441565b90506000610a64611396565b90506000828234610a7591906123e7565b610a7f91906123b6565b905080851015610ac4576040517f08c379a0000000000000000000000000000000000000000000000000000000008152600401610abb90612280565b60405180910390fd5b600860009054906101000a900473ffffffffffffffffffffffffffffffffffffffff1673ffffffffffffffffffffffffffffffffffffffff166323b872dd3330846040518463ffffffff1660e01b8152600401610b23939291906120a8565b602060405180830381600087803b158015610b3d57600080fd5b505af1158015610b51573d6000803e3d6000fd5b505050506040513d601f19601f82011682018060405250810190610b759190611d8a565b5060008334600860009054906101000a900473ffffffffffffffffffffffffffffffffffffffff1673ffffffffffffffffffffffffffffffffffffffff1663c4e41b226040518163ffffffff1660e01b8152600401602060405180830381600087803b158015610be457600080fd5b505af1158015610bf8573d6000803e3d6000fd5b505050506040513d601f19601f82011682018060405250810190610c1c9190611de4565b610c2691906123e7565b610c3091906123b6565b9050610c3c33826117c3565b809450505050505b919050565b60008083118015610c5a5750600082115b610c99576040517f08c379a0000000000000000000000000000000000000000000000000000000008152600401610c9090612220565b60405180910390fd5b816103e884610ca891906123e7565b610cb291906123b6565b905092915050565b60056020528060005260406000206000915090505481565b610cda6117bb565b73ffffffffffffffffffffffffffffffffffffffff16610cf8610d5a565b73ffffffffffffffffffffffffffffffffffffffff1614610d4e576040517f08c379a0000000000000000000000000000000000000000000000000000000008152600401610d4590612240565b60405180910390fd5b610d58600061190c565b565b60008060009054906101000a900473ffffffffffffffffffffffffffffffffffffffff16905090565b6000808211610dc7576040517f08c379a0000000000000000000000000000000000000000000000000000000008152600401610dbe906122c0565b60405180910390fd5b6000610dd1611396565b9050610dde8382476119d0565b915050919050565b60028054610df390612514565b80601f0160208091040260200160405190810160405280929190818152602001828054610e1f90612514565b8015610e6c5780601f10610e4157610100808354040283529160200191610e6c565b820191906000526020600020905b815481529060010190602001808311610e4f57829003601f168201915b505050505081565b60008060008311610eba576040517f08c379a0000000000000000000000000000000000000000000000000000000008152600401610eb190612200565b60405180910390fd5b6000610ec46114ab565b8447610ed091906123e7565b610eda91906123b6565b90506000610ee66114ab565b85610eef611396565b610ef991906123e7565b610f0391906123b6565b9050610f0f3386611a75565b3373ffffffffffffffffffffffffffffffffffffffff166108fc839081150290604051600060405180830381858888f19350505050158015610f55573d6000803e3d6000fd5b50600860009054906101000a900473ffffffffffffffffffffffffffffffffffffffff1673ffffffffffffffffffffffffffffffffffffffff1663a9059cbb33836040518363ffffffff1660e01b8152600401610fb39291906120df565b602060405180830381600087803b158015610fcd57600080fd5b505af1158015610fe1573d6000803e3d6000fd5b505050506040513d601f19601f820116820180604052508101906110059190611d8a565b508181935093505050915091565b600760009054906101000a900473ffffffffffffffffffffffffffffffffffffffff1681565b600073ffffffffffffffffffffffffffffffffffffffff168273ffffffffffffffffffffffffffffffffffffffff1614156110a9576040517f08c379a00000000000000000000000000000000000000000000000000000000081526004016110a090612160565b60405180910390fd5b6110b38282611a75565b5050565b60006110c1611396565b905060006110d08483476119d0565b905082811015611115576040517f08c379a000000000000000000000000000000000000000000000000000000000815260040161110c906121c0565b60405180910390fd5b600860009054906101000a900473ffffffffffffffffffffffffffffffffffffffff1673ffffffffffffffffffffffffffffffffffffffff166323b872dd3330876040518463ffffffff1660e01b8152600401611174939291906120a8565b602060405180830381600087803b15801561118e57600080fd5b505af11580156111a2573d6000803e3d6000fd5b505050506040513d601f19601f820116820180604052508101906111c69190611d8a565b503373ffffffffffffffffffffffffffffffffffffffff166108fc829081150290604051600060405180830381858888f1935050505015801561120d573d6000803e3d6000fd5b5050505050565b600081600560003373ffffffffffffffffffffffffffffffffffffffff1673ffffffffffffffffffffffffffffffffffffffff16815260200190815260200160002054101561126257600080fd5b61126d3384846115f8565b506001905092915050565b6000611282611396565b9050600061129c3434476112969190612441565b846119d0565b9050828110156112e1576040517f08c379a00000000000000000000000000000000000000000000000000000000081526004016112d890612260565b60405180910390fd5b600860009054906101000a900473ffffffffffffffffffffffffffffffffffffffff1673ffffffffffffffffffffffffffffffffffffffff1663a9059cbb33836040518363ffffffff1660e01b815260040161133e9291906120df565b602060405180830381600087803b15801561135857600080fd5b505af115801561136c573d6000803e3d6000fd5b505050506040513d601f19601f820116820180604052508101906113909190611d8a565b50505050565b6000600760009054906101000a900473ffffffffffffffffffffffffffffffffffffffff1673ffffffffffffffffffffffffffffffffffffffff166370a08231306040518263ffffffff1660e01b81526004016113f3919061208d565b60206040518083038186803b15801561140b57600080fd5b505afa15801561141f573d6000803e3d6000fd5b505050506040513d601f19601f820116820180604052508101906114439190611de4565b905090565b600080821161148c576040517f08c379a0000000000000000000000000000000000000000000000000000000008152600401611483906121e0565b60405180910390fd5b6000611496611396565b90506114a38347836119d0565b915050919050565b6000600454905090565b6006602052816000526040600020602052806000526040600020600091509150505481565b6114e26117bb565b73ffffffffffffffffffffffffffffffffffffffff16611500610d5a565b73ffffffffffffffffffffffffffffffffffffffff1614611556576040517f08c379a000000000000000000000000000000000000000000000000000000000815260040161154d90612240565b60405180910390fd5b600073ffffffffffffffffffffffffffffffffffffffff168173ffffffffffffffffffffffffffffffffffffffff1614156115c6576040517f08c379a00000000000000000000000000000000000000000000000000000000081526004016115bd90612180565b60405180910390fd5b6115cf8161190c565b50565b600860009054906101000a900473ffffffffffffffffffffffffffffffffffffffff1681565b60008073ffffffffffffffffffffffffffffffffffffffff168373ffffffffffffffffffffffffffffffffffffffff16141561163357600080fd5b81600560008673ffffffffffffffffffffffffffffffffffffffff1673ffffffffffffffffffffffffffffffffffffffff1681526020019081526020016000205461167e9190612441565b600560008673ffffffffffffffffffffffffffffffffffffffff1673ffffffffffffffffffffffffffffffffffffffff1681526020019081526020016000208190555081600560008573ffffffffffffffffffffffffffffffffffffffff1673ffffffffffffffffffffffffffffffffffffffff1681526020019081526020016000205461170c9190612360565b600560008573ffffffffffffffffffffffffffffffffffffffff1673ffffffffffffffffffffffffffffffffffffffff168152602001908152602001600020819055508273ffffffffffffffffffffffffffffffffffffffff168473ffffffffffffffffffffffffffffffffffffffff167fddf252ad1be2c89b69c2b068fc378daa952ba7f163c4a11628f55a4df523b3ef846040516117ac9190612300565b60405180910390a39392505050565b600033905090565b600073ffffffffffffffffffffffffffffffffffffffff168273ffffffffffffffffffffffffffffffffffffffff161415611833576040517f08c379a000000000000000000000000000000000000000000000000000000000815260040161182a906122a0565b60405180910390fd5b80600460008282546118459190612360565b9250508190555080600560008473ffffffffffffffffffffffffffffffffffffffff1673ffffffffffffffffffffffffffffffffffffffff168152602001908152602001600020600082825461189b9190612360565b925050819055508173ffffffffffffffffffffffffffffffffffffffff16600073ffffffffffffffffffffffffffffffffffffffff167fddf252ad1be2c89b69c2b068fc378daa952ba7f163c4a11628f55a4df523b3ef836040516119009190612300565b60405180910390a35050565b60008060009054906101000a900473ffffffffffffffffffffffffffffffffffffffff169050816000806101000a81548173ffffffffffffffffffffffffffffffffffffffff021916908373ffffffffffffffffffffffffffffffffffffffff1602179055508173ffffffffffffffffffffffffffffffffffffffff168173ffffffffffffffffffffffffffffffffffffffff167f8be0079c531659141344cd1fd0a4f28419497f9722a3daafe3b4186f6b6457e060405160405180910390a35050565b600080831180156119e15750600082115b611a20576040517f08c379a0000000000000000000000000000000000000000000000000000000008152600401611a17906122e0565b60405180910390fd5b6000606385611a2f91906123e7565b905060008382611a3f91906123e7565b9050600082606487611a5191906123e7565b611a5b9190612360565b90508082611a6991906123b6565b93505050509392505050565b600073ffffffffffffffffffffffffffffffffffffffff168273ffffffffffffffffffffffffffffffffffffffff161415611ae5576040517f08c379a0000000000000000000000000000000000000000000000000000000008152600401611adc90612160565b60405180910390fd5b6000600560008473ffffffffffffffffffffffffffffffffffffffff1673ffffffffffffffffffffffffffffffffffffffff16815260200190815260200160002054905081811015611b6c576040517f08c379a0000000000000000000000000000000000000000000000000000000008152600401611b63906121a0565b60405180910390fd5b818103600560008573ffffffffffffffffffffffffffffffffffffffff1673ffffffffffffffffffffffffffffffffffffffff168152602001908152602001600020819055508160046000828254611bc49190612441565b92505081905550600073ffffffffffffffffffffffffffffffffffffffff168373ffffffffffffffffffffffffffffffffffffffff167fddf252ad1be2c89b69c2b068fc378daa952ba7f163c4a11628f55a4df523b3ef84604051611c299190612300565b60405180910390a3505050565b600081359050611c45816128e2565b92915050565b600081519050611c5a816128f9565b92915050565b600081359050611c6f81612910565b92915050565b600081519050611c8481612910565b92915050565b600060208284031215611ca057611c9f6125d3565b5b6000611cae84828501611c36565b91505092915050565b60008060408385031215611cce57611ccd6125d3565b5b6000611cdc85828601611c36565b9250506020611ced85828601611c36565b9150509250929050565b600080600060608486031215611d1057611d0f6125d3565b5b6000611d1e86828701611c36565b9350506020611d2f86828701611c36565b9250506040611d4086828701611c60565b9150509250925092565b60008060408385031215611d6157611d606125d3565b5b6000611d6f85828601611c36565b9250506020611d8085828601611c60565b9150509250929050565b600060208284031215611da057611d9f6125d3565b5b6000611dae84828501611c4b565b91505092915050565b600060208284031215611dcd57611dcc6125d3565b5b6000611ddb84828501611c60565b91505092915050565b600060208284031215611dfa57611df96125d3565b5b6000611e0884828501611c75565b91505092915050565b60008060408385031215611e2857611e276125d3565b5b6000611e3685828601611c60565b9250506020611e4785828601611c60565b9150509250929050565b611e5a81612475565b82525050565b611e6981612487565b82525050565b611e78816124bd565b82525050565b6000611e8982612344565b611e93818561234f565b9350611ea38185602086016124e1565b611eac816125d8565b840191505092915050565b6000611ec460258361234f565b9150611ecf826125e9565b604082019050919050565b6000611ee760268361234f565b9150611ef282612638565b604082019050919050565b6000611f0a60288361234f565b9150611f1582612687565b604082019050919050565b6000611f2d60168361234f565b9150611f38826126d6565b602082019050919050565b6000611f5060128361234f565b9150611f5b826126ff565b602082019050919050565b6000611f73601b8361234f565b9150611f7e82612728565b602082019050919050565b6000611f96601c8361234f565b9150611fa182612751565b602082019050919050565b6000611fb960208361234f565b9150611fc48261277a565b602082019050919050565b6000611fdc602c8361234f565b9150611fe7826127a3565b604082019050919050565b6000611fff602b8361234f565b915061200a826127f2565b604082019050919050565b600061202260288361234f565b915061202d82612841565b604082019050919050565b600061204560148361234f565b915061205082612890565b602082019050919050565b600061206860208361234f565b9150612073826128b9565b602082019050919050565b612087816124b3565b82525050565b60006020820190506120a26000830184611e51565b92915050565b60006060820190506120bd6000830186611e51565b6120ca6020830185611e51565b6120d7604083018461207e565b949350505050565b60006040820190506120f46000830185611e51565b612101602083018461207e565b9392505050565b600060208201905061211d6000830184611e60565b92915050565b60006020820190506121386000830184611e6f565b92915050565b600060208201905081810360008301526121588184611e7e565b905092915050565b6000602082019050818103600083015261217981611eb7565b9050919050565b6000602082019050818103600083015261219981611eda565b9050919050565b600060208201905081810360008301526121b981611efd565b9050919050565b600060208201905081810360008301526121d981611f20565b9050919050565b600060208201905081810360008301526121f981611f43565b9050919050565b6000602082019050818103600083015261221981611f66565b9050919050565b6000602082019050818103600083015261223981611f89565b9050919050565b6000602082019050818103600083015261225981611fac565b9050919050565b6000602082019050818103600083015261227981611fcf565b9050919050565b6000602082019050818103600083015261229981611ff2565b9050919050565b600060208201905081810360008301526122b981612015565b9050919050565b600060208201905081810360008301526122d981612038565b9050919050565b600060208201905081810360008301526122f98161205b565b9050919050565b6000602082019050612315600083018461207e565b92915050565b6000604082019050612330600083018561207e565b61233d602083018461207e565b9392505050565b600081519050919050565b600082825260208201905092915050565b600061236b826124b3565b9150612376836124b3565b9250827fffffffffffffffffffffffffffffffffffffffffffffffffffffffffffffffff038211156123ab576123aa612546565b5b828201905092915050565b60006123c1826124b3565b91506123cc836124b3565b9250826123dc576123db612575565b5b828204905092915050565b60006123f2826124b3565b91506123fd836124b3565b9250817fffffffffffffffffffffffffffffffffffffffffffffffffffffffffffffffff048311821515161561243657612435612546565b5b828202905092915050565b600061244c826124b3565b9150612457836124b3565b92508282101561246a57612469612546565b5b828203905092915050565b600061248082612493565b9050919050565b60008115159050919050565b600073ffffffffffffffffffffffffffffffffffffffff82169050919050565b6000819050919050565b60006124c8826124cf565b9050919050565b60006124da82612493565b9050919050565b60005b838110156124ff5780820151818401526020810190506124e4565b8381111561250e576000848401525b50505050565b6000600282049050600182168061252c57607f821691505b602082108114156125405761253f6125a4565b5b50919050565b7f4e487b7100000000000000000000000000000000000000000000000000000000600052601160045260246000fd5b7f4e487b7100000000000000000000000000000000000000000000000000000000600052601260045260246000fd5b7f4e487b7100000000000000000000000000000000000000000000000000000000600052602260045260246000fd5b600080fd5b6000601f19601f8301169050919050565b7f43616e2774206275726e20746f6b656e7320617420746865207a65726f20616460008201527f6472657373000000000000000000000000000000000000000000000000000000602082015250565b7f4f776e61626c653a206e6577206f776e657220697320746865207a65726f206160008201527f6464726573730000000000000000000000000000000000000000000000000000602082015250565b7f43616e6e6f74206275726e206d6f7265207468616e2062616c616e6365206f6660008201527f206163636f756e74000000000000000000000000000000000000000000000000602082015250565b7f496e73756666696369656e74206c697175696469747900000000000000000000600082015250565b7f657468536f6c6420697320696e76616c69640000000000000000000000000000600082015250565b7f43616e27742072656d6f7665207a65726f206c69717569646974790000000000600082015250565b7f696e76616c696420696e7075742f6f7574707574207265736572766500000000600082015250565b7f4f776e61626c653a2063616c6c6572206973206e6f7420746865206f776e6572600082015250565b7f496e73756666696369656e74206c697175696469747920746f20706572666f7260008201527f6d20746869732074726164650000000000000000000000000000000000000000602082015250565b7f496e73756666696369656e7420746f6b656e206465706f73697420746f20616460008201527f64206c6971756964697479000000000000000000000000000000000000000000602082015250565b7f4d696e74696e6720746f207a65726f2061646472657373206275726e7320746860008201527f6520746f6b656e73000000000000000000000000000000000000000000000000602082015250565b7f746f6b656e536f6c6420697320696e76616c6964000000000000000000000000600082015250565b7f696e73756666696369656e74206574682f746f6b656e206c6971756964697479600082015250565b6128eb81612475565b81146128f657600080fd5b50565b61290281612487565b811461290d57600080fd5b50565b612919816124b3565b811461292457600080fd5b5056fea2646970667358221220e8f90abddbd4da5e81af2fad8f37a75f4dcb7f2543af0826b016a89c45226e4a64736f6c63430008060033",
  "linkReferences": {},
  "deployedLinkReferences": {}
}