{
  "_format": "hh-sol-artifact-1",
  "contractName": "Exchange",
  "sourceName": "contracts/Exchange.sol",
  "abi": [
    {
      "inputs": [
        {
          "internalType": "address",
          "name": "_tokenAddress",
          "type": "address"
        }
      ],
      "stateMutability": "nonpayable",
      "type": "constructor"
    },
    {
      "anonymous": false,
      "inputs": [
        {
          "indexed": true,
          "internalType": "address",
          "name": "owner",
          "type": "address"
        },
        {
          "indexed": true,
          "internalType": "address",
          "name": "spender",
          "type": "address"
        },
        {
          "indexed": false,
          "internalType": "uint256",
          "name": "value",
          "type": "uint256"
        }
      ],
      "name": "Approval",
      "type": "event"
    },
    {
      "anonymous": false,
      "inputs": [
        {
          "indexed": true,
          "internalType": "address",
          "name": "previousOwner",
          "type": "address"
        },
        {
          "indexed": true,
          "internalType": "address",
          "name": "newOwner",
          "type": "address"
        }
      ],
      "name": "OwnershipTransferred",
      "type": "event"
    },
    {
      "anonymous": false,
      "inputs": [
        {
          "indexed": true,
          "internalType": "address",
          "name": "from",
          "type": "address"
        },
        {
          "indexed": true,
          "internalType": "address",
          "name": "to",
          "type": "address"
        },
        {
          "indexed": false,
          "internalType": "uint256",
          "name": "value",
          "type": "uint256"
        }
      ],
      "name": "Transfer",
      "type": "event"
    },
    {
      "inputs": [
        {
          "internalType": "uint256",
          "name": "_tokenAmount",
          "type": "uint256"
        }
      ],
      "name": "addLiquidity",
      "outputs": [
        {
          "internalType": "uint256",
          "name": "",
          "type": "uint256"
        }
      ],
      "stateMutability": "payable",
      "type": "function"
    },
    {
      "inputs": [
        {
          "internalType": "address",
          "name": "",
          "type": "address"
        },
        {
          "internalType": "address",
          "name": "",
          "type": "address"
        }
      ],
      "name": "allowance",
      "outputs": [
        {
          "internalType": "uint256",
          "name": "",
          "type": "uint256"
        }
      ],
      "stateMutability": "view",
      "type": "function"
    },
    {
      "inputs": [
        {
          "internalType": "address",
          "name": "_spender",
          "type": "address"
        },
        {
          "internalType": "uint256",
          "name": "_value",
          "type": "uint256"
        }
      ],
      "name": "approve",
      "outputs": [
        {
          "internalType": "bool",
          "name": "",
          "type": "bool"
        }
      ],
      "stateMutability": "nonpayable",
      "type": "function"
    },
    {
      "inputs": [
        {
          "internalType": "address",
          "name": "",
          "type": "address"
        }
      ],
      "name": "balanceOf",
      "outputs": [
        {
          "internalType": "uint256",
          "name": "",
          "type": "uint256"
        }
      ],
      "stateMutability": "view",
      "type": "function"
    },
    {
      "inputs": [
        {
          "internalType": "address",
          "name": "account",
          "type": "address"
        },
        {
          "internalType": "uint256",
          "name": "amount",
          "type": "uint256"
        }
      ],
      "name": "burn",
      "outputs": [],
      "stateMutability": "nonpayable",
      "type": "function"
    },
    {
      "inputs": [],
      "name": "decimals",
      "outputs": [
        {
          "internalType": "uint256",
          "name": "",
          "type": "uint256"
        }
      ],
      "stateMutability": "view",
      "type": "function"
    },
    {
      "inputs": [
        {
          "internalType": "uint256",
          "name": "_baseTokensRequested",
          "type": "uint256"
        },
        {
          "internalType": "address",
          "name": "_user",
          "type": "address"
        }
      ],
      "name": "ethTokenTransfer",
      "outputs": [],
      "stateMutability": "payable",
      "type": "function"
    },
    {
      "inputs": [],
      "name": "factoryAddress",
      "outputs": [
        {
          "internalType": "address",
          "name": "",
          "type": "address"
        }
      ],
      "stateMutability": "view",
      "type": "function"
    },
    {
      "inputs": [
        {
          "internalType": "uint256",
          "name": "_tokenSold",
          "type": "uint256"
        }
      ],
      "name": "getEthAmount",
      "outputs": [
        {
          "internalType": "uint256",
          "name": "",
          "type": "uint256"
        }
      ],
      "stateMutability": "view",
      "type": "function"
    },
    {
      "inputs": [
        {
          "internalType": "uint256",
          "name": "y",
          "type": "uint256"
        },
        {
          "internalType": "uint256",
          "name": "x",
          "type": "uint256"
        }
      ],
      "name": "getPrice",
      "outputs": [
        {
          "internalType": "uint256",
          "name": "",
          "type": "uint256"
        }
      ],
      "stateMutability": "pure",
      "type": "function"
    },
    {
      "inputs": [
        {
          "internalType": "uint256",
          "name": "_ethSold",
          "type": "uint256"
        }
      ],
      "name": "getTokenAmount",
      "outputs": [
        {
          "internalType": "uint256",
          "name": "",
          "type": "uint256"
        }
      ],
      "stateMutability": "view",
      "type": "function"
    },
    {
      "inputs": [],
      "name": "getTokenReserves",
      "outputs": [
        {
          "internalType": "uint256",
          "name": "",
          "type": "uint256"
        }
      ],
      "stateMutability": "view",
      "type": "function"
    },
    {
      "inputs": [],
      "name": "getTotalSupply",
      "outputs": [
        {
          "internalType": "uint256",
          "name": "",
          "type": "uint256"
        }
      ],
      "stateMutability": "nonpayable",
      "type": "function"
    },
    {
      "inputs": [
        {
          "internalType": "address",
          "name": "account",
          "type": "address"
        },
        {
          "internalType": "uint256",
          "name": "amount",
          "type": "uint256"
        }
      ],
      "name": "mint",
      "outputs": [],
      "stateMutability": "nonpayable",
      "type": "function"
    },
    {
      "inputs": [],
      "name": "name",
      "outputs": [
        {
          "internalType": "string",
          "name": "",
          "type": "string"
        }
      ],
      "stateMutability": "view",
      "type": "function"
    },
    {
      "inputs": [],
      "name": "owner",
      "outputs": [
        {
          "internalType": "address",
          "name": "",
          "type": "address"
        }
      ],
      "stateMutability": "view",
      "type": "function"
    },
    {
      "inputs": [
        {
          "internalType": "uint256",
          "name": "_amount",
          "type": "uint256"
        }
      ],
      "name": "removeLiquidity",
      "outputs": [
        {
          "internalType": "uint256",
          "name": "",
          "type": "uint256"
        },
        {
          "internalType": "uint256",
          "name": "",
          "type": "uint256"
        }
      ],
      "stateMutability": "nonpayable",
      "type": "function"
    },
    {
      "inputs": [],
      "name": "renounceOwnership",
      "outputs": [],
      "stateMutability": "nonpayable",
      "type": "function"
    },
    {
      "inputs": [
        {
          "internalType": "uint256",
          "name": "_baseTokensRequested",
          "type": "uint256"
        }
      ],
      "name": "routeEthToToken",
      "outputs": [],
      "stateMutability": "payable",
      "type": "function"
    },
    {
      "inputs": [
        {
          "internalType": "uint256",
          "name": "_tokenSold",
          "type": "uint256"
        },
        {
          "internalType": "uint256",
          "name": "_baseEthRequested",
          "type": "uint256"
        }
      ],
      "name": "swapTokenToEth",
      "outputs": [],
      "stateMutability": "payable",
      "type": "function"
    },
    {
      "inputs": [],
      "name": "symbol",
      "outputs": [
        {
          "internalType": "string",
          "name": "",
          "type": "string"
        }
      ],
      "stateMutability": "view",
      "type": "function"
    },
    {
      "inputs": [],
      "name": "token",
      "outputs": [
        {
          "internalType": "contract Token",
          "name": "",
          "type": "address"
        }
      ],
      "stateMutability": "view",
      "type": "function"
    },
    {
      "inputs": [],
      "name": "tokenAddress",
      "outputs": [
        {
          "internalType": "address",
          "name": "",
          "type": "address"
        }
      ],
      "stateMutability": "view",
      "type": "function"
    },
    {
      "inputs": [
        {
          "internalType": "uint256",
          "name": "_tokenSold",
          "type": "uint256"
        },
        {
          "internalType": "uint256",
          "name": "_baseTokensRequested",
          "type": "uint256"
        },
        {
          "internalType": "address",
          "name": "_tokenAddress",
          "type": "address"
        }
      ],
      "name": "tokenSwap",
      "outputs": [],
      "stateMutability": "nonpayable",
      "type": "function"
    },
    {
      "inputs": [
        {
          "internalType": "address",
          "name": "_to",
          "type": "address"
        },
        {
          "internalType": "uint256",
          "name": "_value",
          "type": "uint256"
        }
      ],
      "name": "transfer",
      "outputs": [
        {
          "internalType": "bool",
          "name": "",
          "type": "bool"
        }
      ],
      "stateMutability": "nonpayable",
      "type": "function"
    },
    {
      "inputs": [
        {
          "internalType": "address",
          "name": "_from",
          "type": "address"
        },
        {
          "internalType": "address",
          "name": "_to",
          "type": "address"
        },
        {
          "internalType": "uint256",
          "name": "_value",
          "type": "uint256"
        }
      ],
      "name": "transferFrom",
      "outputs": [
        {
          "internalType": "bool",
          "name": "",
          "type": "bool"
        }
      ],
      "stateMutability": "nonpayable",
      "type": "function"
    },
    {
      "inputs": [
        {
          "internalType": "address",
          "name": "newOwner",
          "type": "address"
        }
      ],
      "name": "transferOwnership",
      "outputs": [],
      "stateMutability": "nonpayable",
      "type": "function"
    }
  ],
  "bytecode": "0x60806040523480156200001157600080fd5b50604051620033b7380380620033b783398181016040528101906200003791906200040b565b6040518060400160405280600881526020017f4c5020546f6b656e0000000000000000000000000000000000000000000000008152506040518060400160405280600281526020017f4c5000000000000000000000000000000000000000000000000000000000000081525060126000620000c7620000bb6200027860201b60201c565b6200028060201b60201c565b8360019080519060200190620000df92919062000344565b508260029080519060200190620000f892919062000344565b508160038190555080600481905550600454600560003373ffffffffffffffffffffffffffffffffffffffff1673ffffffffffffffffffffffffffffffffffffffff1681526020019081526020016000208190555050505050600073ffffffffffffffffffffffffffffffffffffffff168173ffffffffffffffffffffffffffffffffffffffff1614156200018c57600080fd5b80600760006101000a81548173ffffffffffffffffffffffffffffffffffffffff021916908373ffffffffffffffffffffffffffffffffffffffff160217905550600760009054906101000a900473ffffffffffffffffffffffffffffffffffffffff16600860006101000a81548173ffffffffffffffffffffffffffffffffffffffff021916908373ffffffffffffffffffffffffffffffffffffffff16021790555033600960006101000a81548173ffffffffffffffffffffffffffffffffffffffff021916908373ffffffffffffffffffffffffffffffffffffffff16021790555050620004f5565b600033905090565b60008060009054906101000a900473ffffffffffffffffffffffffffffffffffffffff169050816000806101000a81548173ffffffffffffffffffffffffffffffffffffffff021916908373ffffffffffffffffffffffffffffffffffffffff1602179055508173ffffffffffffffffffffffffffffffffffffffff168173ffffffffffffffffffffffffffffffffffffffff167f8be0079c531659141344cd1fd0a4f28419497f9722a3daafe3b4186f6b6457e060405160405180910390a35050565b828054620003529062000471565b90600052602060002090601f016020900481019282620003765760008555620003c2565b82601f106200039157805160ff1916838001178555620003c2565b82800160010185558215620003c2579182015b82811115620003c1578251825591602001919060010190620003a4565b5b509050620003d19190620003d5565b5090565b5b80821115620003f0576000816000905550600101620003d6565b5090565b6000815190506200040581620004db565b92915050565b600060208284031215620004245762000423620004d6565b5b60006200043484828501620003f4565b91505092915050565b60006200044a8262000451565b9050919050565b600073ffffffffffffffffffffffffffffffffffffffff82169050919050565b600060028204905060018216806200048a57607f821691505b60208210811415620004a157620004a0620004a7565b5b50919050565b7f4e487b7100000000000000000000000000000000000000000000000000000000600052602260045260246000fd5b600080fd5b620004e6816200043d565b8114620004f257600080fd5b50565b612eb280620005056000396000f3fe60806040526004361061019c5760003560e01c806395d89b41116100ec578063a9059cbb1161008a578063c4e41b2211610064578063c4e41b22146105cd578063dd62ed3e146105f8578063f2fde38b14610635578063fc0c546a1461065e5761019c565b8063a9059cbb14610528578063b9cf500514610565578063c2507ac1146105905761019c565b80639c8f9f23116100c65780639c8f9f231461047a5780639d76ea58146104b85780639dc29fac146104e3578063a2cdda4b1461050c5761019c565b806395d89b41146103fb578063966dae0e146104265780639ab714db146104515761019c565b806351c6590a1161015957806370a082311161013357806370a082311461033f578063715018a61461037c5780638da5cb5b146103935780638fc7a25d146103be5761019c565b806351c6590a146102b65780635cf4ee91146102e65780635ea1b91d146103235761019c565b806306fdde03146101a1578063095ea7b3146101cc57806323b872dd14610209578063313ce5671461024657806340c10f1914610271578063424447ea1461029a575b600080fd5b3480156101ad57600080fd5b506101b6610689565b6040516101c391906125d5565b60405180910390f35b3480156101d857600080fd5b506101f360048036038101906101ee919061212b565b610717565b604051610200919061259f565b60405180910390f35b34801561021557600080fd5b50610230600480360381019061022b91906120d8565b610842565b60405161023d919061259f565b60405180910390f35b34801561025257600080fd5b5061025b610930565b60405161026891906127b7565b60405180910390f35b34801561027d57600080fd5b506102986004803603810190610293919061212b565b610936565b005b6102b460048036038101906102af91906121f2565b610a30565b005b6102d060048036038101906102cb9190612198565b610a3e565b6040516102dd91906127b7565b60405180910390f35b3480156102f257600080fd5b5061030d60048036038101906103089190612232565b610d18565b60405161031a91906127b7565b60405180910390f35b61033d60048036038101906103389190612198565b610d89565b005b34801561034b57600080fd5b506103666004803603810190610361919061203e565b610d96565b60405161037391906127b7565b60405180910390f35b34801561038857600080fd5b50610391610dae565b005b34801561039f57600080fd5b506103a8610e36565b6040516103b59190612524565b60405180910390f35b3480156103ca57600080fd5b506103e560048036038101906103e09190612198565b610e5f565b6040516103f291906127b7565b60405180910390f35b34801561040757600080fd5b50610410610ec2565b60405161041d91906125d5565b60405180910390f35b34801561043257600080fd5b5061043b610f50565b6040516104489190612524565b60405180910390f35b34801561045d57600080fd5b5061047860048036038101906104739190612272565b610f76565b005b34801561048657600080fd5b506104a1600480360381019061049c9190612198565b611212565b6040516104af9291906127fb565b60405180910390f35b3480156104c457600080fd5b506104cd6113b1565b6040516104da9190612524565b60405180910390f35b3480156104ef57600080fd5b5061050a6004803603810190610505919061212b565b6113d7565b005b61052660048036038101906105219190612232565b611455565b005b34801561053457600080fd5b5061054f600480360381019061054a919061212b565b6115b2565b60405161055c919061259f565b60405180910390f35b34801561057157600080fd5b5061057a611616565b60405161058791906127b7565b60405180910390f35b34801561059c57600080fd5b506105b760048036038101906105b29190612198565b6116c8565b6040516105c491906127b7565b60405180910390f35b3480156105d957600080fd5b506105e261172b565b6040516105ef91906127b7565b60405180910390f35b34801561060457600080fd5b5061061f600480360381019061061a9190612098565b611735565b60405161062c91906127b7565b60405180910390f35b34801561064157600080fd5b5061065c6004803603810190610657919061203e565b61175a565b005b34801561066a57600080fd5b50610673611852565b60405161068091906125ba565b60405180910390f35b60018054610696906129f4565b80601f01602080910402602001604051908101604052809291908181526020018280546106c2906129f4565b801561070f5780601f106106e45761010080835404028352916020019161070f565b820191906000526020600020905b8154815290600101906020018083116106f257829003601f168201915b505050505081565b60008073ffffffffffffffffffffffffffffffffffffffff168373ffffffffffffffffffffffffffffffffffffffff16141561075257600080fd5b81600660003373ffffffffffffffffffffffffffffffffffffffff1673ffffffffffffffffffffffffffffffffffffffff16815260200190815260200160002060008573ffffffffffffffffffffffffffffffffffffffff1673ffffffffffffffffffffffffffffffffffffffff168152602001908152602001600020819055508273ffffffffffffffffffffffffffffffffffffffff163373ffffffffffffffffffffffffffffffffffffffff167f8c5be1e5ebec7d5bd14f71427d1e84f3dd0314c0f7b2291e5b200ac8c7c3b9258460405161083091906127b7565b60405180910390a36001905092915050565b6000600560008573ffffffffffffffffffffffffffffffffffffffff1673ffffffffffffffffffffffffffffffffffffffff1681526020019081526020016000205482111561089057600080fd5b600660008573ffffffffffffffffffffffffffffffffffffffff1673ffffffffffffffffffffffffffffffffffffffff16815260200190815260200160002060003373ffffffffffffffffffffffffffffffffffffffff1673ffffffffffffffffffffffffffffffffffffffff1681526020019081526020016000205482111561091957600080fd5b610924848484611878565b50600190509392505050565b60035481565b61093e611a3b565b73ffffffffffffffffffffffffffffffffffffffff1661095c610e36565b73ffffffffffffffffffffffffffffffffffffffff16146109b2576040517f08c379a00000000000000000000000000000000000000000000000000000000081526004016109a9906126f7565b60405180910390fd5b600073ffffffffffffffffffffffffffffffffffffffff168273ffffffffffffffffffffffffffffffffffffffff161415610a22576040517f08c379a0000000000000000000000000000000000000000000000000000000008152600401610a1990612757565b60405180910390fd5b610a2c8282611a43565b5050565b610a3a8282611b8c565b5050565b600080610a49611616565b1415610b1957600860009054906101000a900473ffffffffffffffffffffffffffffffffffffffff1673ffffffffffffffffffffffffffffffffffffffff166323b872dd3330856040518463ffffffff1660e01b8152600401610aae9392919061253f565b602060405180830381600087803b158015610ac857600080fd5b505af1158015610adc573d6000803e3d6000fd5b505050506040513d601f19601f82011682018060405250810190610b00919061216b565b506000479050610b103382611a43565b80915050610d13565b60003447610b279190612921565b90506000610b33611616565b90506000828234610b4491906128c7565b610b4e9190612896565b905080851015610b93576040517f08c379a0000000000000000000000000000000000000000000000000000000008152600401610b8a90612737565b60405180910390fd5b600860009054906101000a900473ffffffffffffffffffffffffffffffffffffffff1673ffffffffffffffffffffffffffffffffffffffff166323b872dd3330846040518463ffffffff1660e01b8152600401610bf29392919061253f565b602060405180830381600087803b158015610c0c57600080fd5b505af1158015610c20573d6000803e3d6000fd5b505050506040513d601f19601f82011682018060405250810190610c44919061216b565b5060008334600860009054906101000a900473ffffffffffffffffffffffffffffffffffffffff1673ffffffffffffffffffffffffffffffffffffffff1663c4e41b226040518163ffffffff1660e01b8152600401602060405180830381600087803b158015610cb357600080fd5b505af1158015610cc7573d6000803e3d6000fd5b505050506040513d601f19601f82011682018060405250810190610ceb91906121c5565b610cf591906128c7565b610cff9190612896565b9050610d0b3382611a43565b809450505050505b919050565b60008083118015610d295750600082115b610d68576040517f08c379a0000000000000000000000000000000000000000000000000000000008152600401610d5f906126d7565b60405180910390fd5b816103e884610d7791906128c7565b610d819190612896565b905092915050565b610d938133611b8c565b50565b60056020528060005260406000206000915090505481565b610db6611a3b565b73ffffffffffffffffffffffffffffffffffffffff16610dd4610e36565b73ffffffffffffffffffffffffffffffffffffffff1614610e2a576040517f08c379a0000000000000000000000000000000000000000000000000000000008152600401610e21906126f7565b60405180910390fd5b610e346000611cab565b565b60008060009054906101000a900473ffffffffffffffffffffffffffffffffffffffff16905090565b6000808211610ea3576040517f08c379a0000000000000000000000000000000000000000000000000000000008152600401610e9a90612777565b60405180910390fd5b6000610ead611616565b9050610eba838247611d6f565b915050919050565b60028054610ecf906129f4565b80601f0160208091040260200160405190810160405280929190818152602001828054610efb906129f4565b8015610f485780601f10610f1d57610100808354040283529160200191610f48565b820191906000526020600020905b815481529060010190602001808311610f2b57829003601f168201915b505050505081565b600960009054906101000a900473ffffffffffffffffffffffffffffffffffffffff1681565b6000600960009054906101000a900473ffffffffffffffffffffffffffffffffffffffff1673ffffffffffffffffffffffffffffffffffffffff166306f2bf62836040518263ffffffff1660e01b8152600401610fd39190612524565b602060405180830381600087803b158015610fed57600080fd5b505af1158015611001573d6000803e3d6000fd5b505050506040513d601f19601f82011682018060405250810190611025919061206b565b90503073ffffffffffffffffffffffffffffffffffffffff168173ffffffffffffffffffffffffffffffffffffffff16141580156110905750600073ffffffffffffffffffffffffffffffffffffffff168173ffffffffffffffffffffffffffffffffffffffff1614155b6110cf576040517f08c379a00000000000000000000000000000000000000000000000000000000081526004016110c690612697565b60405180910390fd5b60006110d9611616565b905060006110e8868347611d6f565b9050600860009054906101000a900473ffffffffffffffffffffffffffffffffffffffff1673ffffffffffffffffffffffffffffffffffffffff166323b872dd3330896040518463ffffffff1660e01b81526004016111499392919061253f565b602060405180830381600087803b15801561116357600080fd5b505af1158015611177573d6000803e3d6000fd5b505050506040513d601f19601f8201168201806040525081019061119b919061216b565b508273ffffffffffffffffffffffffffffffffffffffff1663424447ea8287336040518463ffffffff1660e01b81526004016111d89291906127d2565b6000604051808303818588803b1580156111f157600080fd5b505af1158015611205573d6000803e3d6000fd5b5050505050505050505050565b60008060008311611258576040517f08c379a000000000000000000000000000000000000000000000000000000000815260040161124f906126b7565b60405180910390fd5b600061126261172b565b844761126e91906128c7565b6112789190612896565b9050600061128461172b565b8561128d611616565b61129791906128c7565b6112a19190612896565b90506112ad3386611e14565b3373ffffffffffffffffffffffffffffffffffffffff166108fc839081150290604051600060405180830381858888f193505050501580156112f3573d6000803e3d6000fd5b50600860009054906101000a900473ffffffffffffffffffffffffffffffffffffffff1673ffffffffffffffffffffffffffffffffffffffff1663a9059cbb33836040518363ffffffff1660e01b8152600401611351929190612576565b602060405180830381600087803b15801561136b57600080fd5b505af115801561137f573d6000803e3d6000fd5b505050506040513d601f19601f820116820180604052508101906113a3919061216b565b508181935093505050915091565b600760009054906101000a900473ffffffffffffffffffffffffffffffffffffffff1681565b600073ffffffffffffffffffffffffffffffffffffffff168273ffffffffffffffffffffffffffffffffffffffff161415611447576040517f08c379a000000000000000000000000000000000000000000000000000000000815260040161143e906125f7565b60405180910390fd5b6114518282611e14565b5050565b600061145f611616565b9050600061146e848347611d6f565b9050828110156114b3576040517f08c379a00000000000000000000000000000000000000000000000000000000081526004016114aa90612657565b60405180910390fd5b600860009054906101000a900473ffffffffffffffffffffffffffffffffffffffff1673ffffffffffffffffffffffffffffffffffffffff166323b872dd3330876040518463ffffffff1660e01b81526004016115129392919061253f565b602060405180830381600087803b15801561152c57600080fd5b505af1158015611540573d6000803e3d6000fd5b505050506040513d601f19601f82011682018060405250810190611564919061216b565b503373ffffffffffffffffffffffffffffffffffffffff166108fc829081150290604051600060405180830381858888f193505050501580156115ab573d6000803e3d6000fd5b5050505050565b600081600560003373ffffffffffffffffffffffffffffffffffffffff1673ffffffffffffffffffffffffffffffffffffffff16815260200190815260200160002054101561160057600080fd5b61160b338484611878565b506001905092915050565b6000600760009054906101000a900473ffffffffffffffffffffffffffffffffffffffff1673ffffffffffffffffffffffffffffffffffffffff166370a08231306040518263ffffffff1660e01b81526004016116739190612524565b60206040518083038186803b15801561168b57600080fd5b505afa15801561169f573d6000803e3d6000fd5b505050506040513d601f19601f820116820180604052508101906116c391906121c5565b905090565b600080821161170c576040517f08c379a000000000000000000000000000000000000000000000000000000000815260040161170390612677565b60405180910390fd5b6000611716611616565b9050611723834783611d6f565b915050919050565b6000600454905090565b6006602052816000526040600020602052806000526040600020600091509150505481565b611762611a3b565b73ffffffffffffffffffffffffffffffffffffffff16611780610e36565b73ffffffffffffffffffffffffffffffffffffffff16146117d6576040517f08c379a00000000000000000000000000000000000000000000000000000000081526004016117cd906126f7565b60405180910390fd5b600073ffffffffffffffffffffffffffffffffffffffff168173ffffffffffffffffffffffffffffffffffffffff161415611846576040517f08c379a000000000000000000000000000000000000000000000000000000000815260040161183d90612617565b60405180910390fd5b61184f81611cab565b50565b600860009054906101000a900473ffffffffffffffffffffffffffffffffffffffff1681565b60008073ffffffffffffffffffffffffffffffffffffffff168373ffffffffffffffffffffffffffffffffffffffff1614156118b357600080fd5b81600560008673ffffffffffffffffffffffffffffffffffffffff1673ffffffffffffffffffffffffffffffffffffffff168152602001908152602001600020546118fe9190612921565b600560008673ffffffffffffffffffffffffffffffffffffffff1673ffffffffffffffffffffffffffffffffffffffff1681526020019081526020016000208190555081600560008573ffffffffffffffffffffffffffffffffffffffff1673ffffffffffffffffffffffffffffffffffffffff1681526020019081526020016000205461198c9190612840565b600560008573ffffffffffffffffffffffffffffffffffffffff1673ffffffffffffffffffffffffffffffffffffffff168152602001908152602001600020819055508273ffffffffffffffffffffffffffffffffffffffff168473ffffffffffffffffffffffffffffffffffffffff167fddf252ad1be2c89b69c2b068fc378daa952ba7f163c4a11628f55a4df523b3ef84604051611a2c91906127b7565b60405180910390a39392505050565b600033905090565b600073ffffffffffffffffffffffffffffffffffffffff168273ffffffffffffffffffffffffffffffffffffffff161415611ab3576040517f08c379a0000000000000000000000000000000000000000000000000000000008152600401611aaa90612757565b60405180910390fd5b8060046000828254611ac59190612840565b9250508190555080600560008473ffffffffffffffffffffffffffffffffffffffff1673ffffffffffffffffffffffffffffffffffffffff1681526020019081526020016000206000828254611b1b9190612840565b925050819055508173ffffffffffffffffffffffffffffffffffffffff16600073ffffffffffffffffffffffffffffffffffffffff167fddf252ad1be2c89b69c2b068fc378daa952ba7f163c4a11628f55a4df523b3ef83604051611b8091906127b7565b60405180910390a35050565b6000611b96611616565b90506000611bb0343447611baa9190612921565b84611d6f565b905083811015611bf5576040517f08c379a0000000000000000000000000000000000000000000000000000000008152600401611bec90612717565b60405180910390fd5b600860009054906101000a900473ffffffffffffffffffffffffffffffffffffffff1673ffffffffffffffffffffffffffffffffffffffff1663a9059cbb84836040518363ffffffff1660e01b8152600401611c52929190612576565b602060405180830381600087803b158015611c6c57600080fd5b505af1158015611c80573d6000803e3d6000fd5b505050506040513d601f19601f82011682018060405250810190611ca4919061216b565b5050505050565b60008060009054906101000a900473ffffffffffffffffffffffffffffffffffffffff169050816000806101000a81548173ffffffffffffffffffffffffffffffffffffffff021916908373ffffffffffffffffffffffffffffffffffffffff1602179055508173ffffffffffffffffffffffffffffffffffffffff168173ffffffffffffffffffffffffffffffffffffffff167f8be0079c531659141344cd1fd0a4f28419497f9722a3daafe3b4186f6b6457e060405160405180910390a35050565b60008083118015611d805750600082115b611dbf576040517f08c379a0000000000000000000000000000000000000000000000000000000008152600401611db690612797565b60405180910390fd5b6000606385611dce91906128c7565b905060008382611dde91906128c7565b9050600082606487611df091906128c7565b611dfa9190612840565b90508082611e089190612896565b93505050509392505050565b600073ffffffffffffffffffffffffffffffffffffffff168273ffffffffffffffffffffffffffffffffffffffff161415611e84576040517f08c379a0000000000000000000000000000000000000000000000000000000008152600401611e7b906125f7565b60405180910390fd5b6000600560008473ffffffffffffffffffffffffffffffffffffffff1673ffffffffffffffffffffffffffffffffffffffff16815260200190815260200160002054905081811015611f0b576040517f08c379a0000000000000000000000000000000000000000000000000000000008152600401611f0290612637565b60405180910390fd5b818103600560008573ffffffffffffffffffffffffffffffffffffffff1673ffffffffffffffffffffffffffffffffffffffff168152602001908152602001600020819055508160046000828254611f639190612921565b92505081905550600073ffffffffffffffffffffffffffffffffffffffff168373ffffffffffffffffffffffffffffffffffffffff167fddf252ad1be2c89b69c2b068fc378daa952ba7f163c4a11628f55a4df523b3ef84604051611fc891906127b7565b60405180910390a3505050565b600081359050611fe481612e37565b92915050565b600081519050611ff981612e37565b92915050565b60008151905061200e81612e4e565b92915050565b60008135905061202381612e65565b92915050565b60008151905061203881612e65565b92915050565b60006020828403121561205457612053612ab3565b5b600061206284828501611fd5565b91505092915050565b60006020828403121561208157612080612ab3565b5b600061208f84828501611fea565b91505092915050565b600080604083850312156120af576120ae612ab3565b5b60006120bd85828601611fd5565b92505060206120ce85828601611fd5565b9150509250929050565b6000806000606084860312156120f1576120f0612ab3565b5b60006120ff86828701611fd5565b935050602061211086828701611fd5565b925050604061212186828701612014565b9150509250925092565b6000806040838503121561214257612141612ab3565b5b600061215085828601611fd5565b925050602061216185828601612014565b9150509250929050565b60006020828403121561218157612180612ab3565b5b600061218f84828501611fff565b91505092915050565b6000602082840312156121ae576121ad612ab3565b5b60006121bc84828501612014565b91505092915050565b6000602082840312156121db576121da612ab3565b5b60006121e984828501612029565b91505092915050565b6000806040838503121561220957612208612ab3565b5b600061221785828601612014565b925050602061222885828601611fd5565b9150509250929050565b6000806040838503121561224957612248612ab3565b5b600061225785828601612014565b925050602061226885828601612014565b9150509250929050565b60008060006060848603121561228b5761228a612ab3565b5b600061229986828701612014565b93505060206122aa86828701612014565b92505060406122bb86828701611fd5565b9150509250925092565b6122ce81612955565b82525050565b6122dd81612967565b82525050565b6122ec8161299d565b82525050565b60006122fd82612824565b612307818561282f565b93506123178185602086016129c1565b61232081612ab8565b840191505092915050565b600061233860258361282f565b915061234382612ac9565b604082019050919050565b600061235b60268361282f565b915061236682612b18565b604082019050919050565b600061237e60288361282f565b915061238982612b67565b604082019050919050565b60006123a160168361282f565b91506123ac82612bb6565b602082019050919050565b60006123c460128361282f565b91506123cf82612bdf565b602082019050919050565b60006123e760428361282f565b91506123f282612c08565b606082019050919050565b600061240a601b8361282f565b915061241582612c7d565b602082019050919050565b600061242d601c8361282f565b915061243882612ca6565b602082019050919050565b600061245060208361282f565b915061245b82612ccf565b602082019050919050565b6000612473602c8361282f565b915061247e82612cf8565b604082019050919050565b6000612496602b8361282f565b91506124a182612d47565b604082019050919050565b60006124b960288361282f565b91506124c482612d96565b604082019050919050565b60006124dc60148361282f565b91506124e782612de5565b602082019050919050565b60006124ff60208361282f565b915061250a82612e0e565b602082019050919050565b61251e81612993565b82525050565b600060208201905061253960008301846122c5565b92915050565b600060608201905061255460008301866122c5565b61256160208301856122c5565b61256e6040830184612515565b949350505050565b600060408201905061258b60008301856122c5565b6125986020830184612515565b9392505050565b60006020820190506125b460008301846122d4565b92915050565b60006020820190506125cf60008301846122e3565b92915050565b600060208201905081810360008301526125ef81846122f2565b905092915050565b600060208201905081810360008301526126108161232b565b9050919050565b600060208201905081810360008301526126308161234e565b9050919050565b6000602082019050818103600083015261265081612371565b9050919050565b6000602082019050818103600083015261267081612394565b9050919050565b60006020820190508181036000830152612690816123b7565b9050919050565b600060208201905081810360008301526126b0816123da565b9050919050565b600060208201905081810360008301526126d0816123fd565b9050919050565b600060208201905081810360008301526126f081612420565b9050919050565b6000602082019050818103600083015261271081612443565b9050919050565b6000602082019050818103600083015261273081612466565b9050919050565b6000602082019050818103600083015261275081612489565b9050919050565b60006020820190508181036000830152612770816124ac565b9050919050565b60006020820190508181036000830152612790816124cf565b9050919050565b600060208201905081810360008301526127b0816124f2565b9050919050565b60006020820190506127cc6000830184612515565b92915050565b60006040820190506127e76000830185612515565b6127f460208301846122c5565b9392505050565b60006040820190506128106000830185612515565b61281d6020830184612515565b9392505050565b600081519050919050565b600082825260208201905092915050565b600061284b82612993565b915061285683612993565b9250827fffffffffffffffffffffffffffffffffffffffffffffffffffffffffffffffff0382111561288b5761288a612a26565b5b828201905092915050565b60006128a182612993565b91506128ac83612993565b9250826128bc576128bb612a55565b5b828204905092915050565b60006128d282612993565b91506128dd83612993565b9250817fffffffffffffffffffffffffffffffffffffffffffffffffffffffffffffffff048311821515161561291657612915612a26565b5b828202905092915050565b600061292c82612993565b915061293783612993565b92508282101561294a57612949612a26565b5b828203905092915050565b600061296082612973565b9050919050565b60008115159050919050565b600073ffffffffffffffffffffffffffffffffffffffff82169050919050565b6000819050919050565b60006129a8826129af565b9050919050565b60006129ba82612973565b9050919050565b60005b838110156129df5780820151818401526020810190506129c4565b838111156129ee576000848401525b50505050565b60006002820490506001821680612a0c57607f821691505b60208210811415612a2057612a1f612a84565b5b50919050565b7f4e487b7100000000000000000000000000000000000000000000000000000000600052601160045260246000fd5b7f4e487b7100000000000000000000000000000000000000000000000000000000600052601260045260246000fd5b7f4e487b7100000000000000000000000000000000000000000000000000000000600052602260045260246000fd5b600080fd5b6000601f19601f8301169050919050565b7f43616e2774206275726e20746f6b656e7320617420746865207a65726f20616460008201527f6472657373000000000000000000000000000000000000000000000000000000602082015250565b7f4f776e61626c653a206e6577206f776e657220697320746865207a65726f206160008201527f6464726573730000000000000000000000000000000000000000000000000000602082015250565b7f43616e6e6f74206275726e206d6f7265207468616e2062616c616e6365206f6660008201527f206163636f756e74000000000000000000000000000000000000000000000000602082015250565b7f496e73756666696369656e74206c697175696469747900000000000000000000600082015250565b7f657468536f6c6420697320696e76616c69640000000000000000000000000000600082015250565b7f45786368616e67652061646472657373206d75737420657869737420616e642060008201527f63616e2774206265207468652073616d6520746f6b656e27732065786368616e60208201527f6765000000000000000000000000000000000000000000000000000000000000604082015250565b7f43616e27742072656d6f7665207a65726f206c69717569646974790000000000600082015250565b7f696e76616c696420696e7075742f6f7574707574207265736572766500000000600082015250565b7f4f776e61626c653a2063616c6c6572206973206e6f7420746865206f776e6572600082015250565b7f496e73756666696369656e74206c697175696469747920746f20706572666f7260008201527f6d20746869732074726164650000000000000000000000000000000000000000602082015250565b7f496e73756666696369656e7420746f6b656e206465706f73697420746f20616460008201527f64206c6971756964697479000000000000000000000000000000000000000000602082015250565b7f4d696e74696e6720746f207a65726f2061646472657373206275726e7320746860008201527f6520746f6b656e73000000000000000000000000000000000000000000000000602082015250565b7f746f6b656e536f6c6420697320696e76616c6964000000000000000000000000600082015250565b7f696e73756666696369656e74206574682f746f6b656e206c6971756964697479600082015250565b612e4081612955565b8114612e4b57600080fd5b50565b612e5781612967565b8114612e6257600080fd5b50565b612e6e81612993565b8114612e7957600080fd5b5056fea264697066735822122035fe9fc0b27ae61321a2706bbe3aed62f7fc5bd4861be0601826c0ba6da42c2964736f6c63430008060033",
  "linkReferences": {},
  "deployedLinkReferences": {}
}