{
  "_format": "hh-sol-artifact-1",
  "contractName": "Factory",
  "sourceName": "contracts/Factory.sol",
  "abi": [
    {
      "inputs": [
        {
          "internalType": "address",
          "name": "_tokenAddress",
          "type": "address"
        }
      ],
      "name": "getExchange",
      "outputs": [
        {
          "internalType": "address",
          "name": "",
          "type": "address"
        }
      ],
      "stateMutability": "view",
      "type": "function"
    },
    {
      "inputs": [
        {
          "internalType": "address",
          "name": "_tokenAddress",
          "type": "address"
        }
      ],
      "name": "makeExchange",
      "outputs": [
        {
          "internalType": "address",
          "name": "",
          "type": "address"
        }
      ],
      "stateMutability": "nonpayable",
      "type": "function"
    },
    {
      "inputs": [
        {
          "internalType": "address",
          "name": "",
          "type": "address"
        }
      ],
      "name": "tokenToExchange",
      "outputs": [
        {
          "internalType": "address",
          "name": "",
          "type": "address"
        }
      ],
      "stateMutability": "view",
      "type": "function"
    }
  ],
  "bytecode": "0x608060405234801561001057600080fd5b50613ad2806100206000396000f3fe60806040523480156200001157600080fd5b5060043610620000465760003560e01c806306f2bf62146200004b5780630a23d9ef1462000081578063c3c49a6314620000b7575b600080fd5b620000696004803603810190620000639190620003b4565b620000ed565b60405162000078919062000445565b60405180910390f35b6200009f6004803603810190620000999190620003b4565b62000155565b604051620000ae919062000445565b60405180910390f35b620000d56004803603810190620000cf9190620003b4565b6200035c565b604051620000e4919062000445565b60405180910390f35b60008060008373ffffffffffffffffffffffffffffffffffffffff1673ffffffffffffffffffffffffffffffffffffffff16815260200190815260200160002060009054906101000a900473ffffffffffffffffffffffffffffffffffffffff169050919050565b60008073ffffffffffffffffffffffffffffffffffffffff168273ffffffffffffffffffffffffffffffffffffffff161415620001c9576040517f08c379a0000000000000000000000000000000000000000000000000000000008152600401620001c09062000484565b60405180910390fd5b600073ffffffffffffffffffffffffffffffffffffffff166000808473ffffffffffffffffffffffffffffffffffffffff1673ffffffffffffffffffffffffffffffffffffffff16815260200190815260200160002060009054906101000a900473ffffffffffffffffffffffffffffffffffffffff1673ffffffffffffffffffffffffffffffffffffffff161462000299576040517f08c379a0000000000000000000000000000000000000000000000000000000008152600401620002909062000462565b60405180910390fd5b600082604051620002aa906200038f565b620002b6919062000445565b604051809103906000f080158015620002d3573d6000803e3d6000fd5b509050806000808573ffffffffffffffffffffffffffffffffffffffff1673ffffffffffffffffffffffffffffffffffffffff16815260200190815260200160002060006101000a81548173ffffffffffffffffffffffffffffffffffffffff021916908373ffffffffffffffffffffffffffffffffffffffff16021790555080915050919050565b60006020528060005260406000206000915054906101000a900473ffffffffffffffffffffffffffffffffffffffff1681565b6134f480620005a983390190565b600081359050620003ae816200058e565b92915050565b600060208284031215620003cd57620003cc620004eb565b5b6000620003dd848285016200039d565b91505092915050565b620003f181620004b7565b82525050565b600062000406602783620004a6565b91506200041382620004f0565b604082019050919050565b60006200042d602583620004a6565b91506200043a826200053f565b604082019050919050565b60006020820190506200045c6000830184620003e6565b92915050565b600060208201905081810360008301526200047d81620003f7565b9050919050565b600060208201905081810360008301526200049f816200041e565b9050919050565b600082825260208201905092915050565b6000620004c482620004cb565b9050919050565b600073ffffffffffffffffffffffffffffffffffffffff82169050919050565b600080fd5b7f746869732065786368616e67652068617320616c7265616479206265656e206460008201527f65706c6f79656400000000000000000000000000000000000000000000000000602082015250565b7f4e6f20746f6b656e20636f6e747261637420617420746865207a65726f20616460008201527f6472657373000000000000000000000000000000000000000000000000000000602082015250565b6200059981620004b7565b8114620005a557600080fd5b5056fe60806040523480156200001157600080fd5b50604051620034f4380380620034f483398181016040528101906200003791906200040b565b6040518060400160405280600881526020017f4c5020546f6b656e0000000000000000000000000000000000000000000000008152506040518060400160405280600281526020017f4c5000000000000000000000000000000000000000000000000000000000000081525060126000620000c7620000bb6200027860201b60201c565b6200028060201b60201c565b8360019080519060200190620000df92919062000344565b508260029080519060200190620000f892919062000344565b508160038190555080600481905550600454600560003373ffffffffffffffffffffffffffffffffffffffff1673ffffffffffffffffffffffffffffffffffffffff1681526020019081526020016000208190555050505050600073ffffffffffffffffffffffffffffffffffffffff168173ffffffffffffffffffffffffffffffffffffffff1614156200018c57600080fd5b80600760006101000a81548173ffffffffffffffffffffffffffffffffffffffff021916908373ffffffffffffffffffffffffffffffffffffffff160217905550600760009054906101000a900473ffffffffffffffffffffffffffffffffffffffff16600860006101000a81548173ffffffffffffffffffffffffffffffffffffffff021916908373ffffffffffffffffffffffffffffffffffffffff16021790555033600960006101000a81548173ffffffffffffffffffffffffffffffffffffffff021916908373ffffffffffffffffffffffffffffffffffffffff16021790555050620004f5565b600033905090565b60008060009054906101000a900473ffffffffffffffffffffffffffffffffffffffff169050816000806101000a81548173ffffffffffffffffffffffffffffffffffffffff021916908373ffffffffffffffffffffffffffffffffffffffff1602179055508173ffffffffffffffffffffffffffffffffffffffff168173ffffffffffffffffffffffffffffffffffffffff167f8be0079c531659141344cd1fd0a4f28419497f9722a3daafe3b4186f6b6457e060405160405180910390a35050565b828054620003529062000471565b90600052602060002090601f016020900481019282620003765760008555620003c2565b82601f106200039157805160ff1916838001178555620003c2565b82800160010185558215620003c2579182015b82811115620003c1578251825591602001919060010190620003a4565b5b509050620003d19190620003d5565b5090565b5b80821115620003f0576000816000905550600101620003d6565b5090565b6000815190506200040581620004db565b92915050565b600060208284031215620004245762000423620004d6565b5b60006200043484828501620003f4565b91505092915050565b60006200044a8262000451565b9050919050565b600073ffffffffffffffffffffffffffffffffffffffff82169050919050565b600060028204905060018216806200048a57607f821691505b60208210811415620004a157620004a0620004a7565b5b50919050565b7f4e487b7100000000000000000000000000000000000000000000000000000000600052602260045260246000fd5b600080fd5b620004e6816200043d565b8114620004f257600080fd5b50565b612fef80620005056000396000f3fe60806040526004361061019c5760003560e01c80638fc7a25d116100ec578063a2cdda4b1161008a578063c2507ac111610064578063c2507ac1146105bb578063dd62ed3e146105f8578063f2fde38b14610635578063fc0c546a1461065e5761019c565b8063a2cdda4b14610537578063a9059cbb14610553578063b9cf5005146105905761019c565b80639ab714db116100c65780639ab714db1461047c5780639c8f9f23146104a55780639d76ea58146104e35780639dc29fac1461050e5761019c565b80638fc7a25d146103e957806395d89b4114610426578063966dae0e146104515761019c565b8063424447ea116101595780635ea1b91d116101335780635ea1b91d1461034e57806370a082311461036a578063715018a6146103a75780638da5cb5b146103be5761019c565b8063424447ea146102c557806351c6590a146102e15780635cf4ee91146103115761019c565b806306fdde03146101a1578063095ea7b3146101cc57806318160ddd1461020957806323b872dd14610234578063313ce5671461027157806340c10f191461029c575b600080fd5b3480156101ad57600080fd5b506101b6610689565b6040516101c39190612712565b60405180910390f35b3480156101d857600080fd5b506101f360048036038101906101ee9190612268565b610717565b60405161020091906126dc565b60405180910390f35b34801561021557600080fd5b5061021e610842565b60405161022b91906128f4565b60405180910390f35b34801561024057600080fd5b5061025b60048036038101906102569190612215565b610848565b60405161026891906126dc565b60405180910390f35b34801561027d57600080fd5b50610286610936565b60405161029391906128f4565b60405180910390f35b3480156102a857600080fd5b506102c360048036038101906102be9190612268565b61093c565b005b6102df60048036038101906102da919061232f565b610a36565b005b6102fb60048036038101906102f691906122d5565b610a44565b60405161030891906128f4565b60405180910390f35b34801561031d57600080fd5b506103386004803603810190610333919061236f565b610d1c565b60405161034591906128f4565b60405180910390f35b610368600480360381019061036391906122d5565b610d8d565b005b34801561037657600080fd5b50610391600480360381019061038c919061217b565b610d9a565b60405161039e91906128f4565b60405180910390f35b3480156103b357600080fd5b506103bc610db2565b005b3480156103ca57600080fd5b506103d3610e3a565b6040516103e09190612661565b60405180910390f35b3480156103f557600080fd5b50610410600480360381019061040b91906122d5565b610e63565b60405161041d91906128f4565b60405180910390f35b34801561043257600080fd5b5061043b610ec6565b6040516104489190612712565b60405180910390f35b34801561045d57600080fd5b50610466610f54565b6040516104739190612661565b60405180910390f35b34801561048857600080fd5b506104a3600480360381019061049e91906123af565b610f7a565b005b3480156104b157600080fd5b506104cc60048036038101906104c791906122d5565b611216565b6040516104da929190612938565b60405180910390f35b3480156104ef57600080fd5b506104f86114e5565b6040516105059190612661565b60405180910390f35b34801561051a57600080fd5b5061053560048036038101906105309190612268565b61150b565b005b610551600480360381019061054c919061236f565b611589565b005b34801561055f57600080fd5b5061057a60048036038101906105759190612268565b6116e6565b60405161058791906126dc565b60405180910390f35b34801561059c57600080fd5b506105a561174a565b6040516105b291906128f4565b60405180910390f35b3480156105c757600080fd5b506105e260048036038101906105dd91906122d5565b6117fc565b6040516105ef91906128f4565b60405180910390f35b34801561060457600080fd5b5061061f600480360381019061061a91906121d5565b61185f565b60405161062c91906128f4565b60405180910390f35b34801561064157600080fd5b5061065c6004803603810190610657919061217b565b611884565b005b34801561066a57600080fd5b5061067361197c565b60405161068091906126f7565b60405180910390f35b6001805461069690612b31565b80601f01602080910402602001604051908101604052809291908181526020018280546106c290612b31565b801561070f5780601f106106e45761010080835404028352916020019161070f565b820191906000526020600020905b8154815290600101906020018083116106f257829003601f168201915b505050505081565b60008073ffffffffffffffffffffffffffffffffffffffff168373ffffffffffffffffffffffffffffffffffffffff16141561075257600080fd5b81600660003373ffffffffffffffffffffffffffffffffffffffff1673ffffffffffffffffffffffffffffffffffffffff16815260200190815260200160002060008573ffffffffffffffffffffffffffffffffffffffff1673ffffffffffffffffffffffffffffffffffffffff168152602001908152602001600020819055508273ffffffffffffffffffffffffffffffffffffffff163373ffffffffffffffffffffffffffffffffffffffff167f8c5be1e5ebec7d5bd14f71427d1e84f3dd0314c0f7b2291e5b200ac8c7c3b9258460405161083091906128f4565b60405180910390a36001905092915050565b60045481565b6000600560008573ffffffffffffffffffffffffffffffffffffffff1673ffffffffffffffffffffffffffffffffffffffff1681526020019081526020016000205482111561089657600080fd5b600660008573ffffffffffffffffffffffffffffffffffffffff1673ffffffffffffffffffffffffffffffffffffffff16815260200190815260200160002060003373ffffffffffffffffffffffffffffffffffffffff1673ffffffffffffffffffffffffffffffffffffffff1681526020019081526020016000205482111561091f57600080fd5b61092a8484846119a2565b50600190509392505050565b60035481565b610944611b65565b73ffffffffffffffffffffffffffffffffffffffff16610962610e3a565b73ffffffffffffffffffffffffffffffffffffffff16146109b8576040517f08c379a00000000000000000000000000000000000000000000000000000000081526004016109af90612834565b60405180910390fd5b600073ffffffffffffffffffffffffffffffffffffffff168273ffffffffffffffffffffffffffffffffffffffff161415610a28576040517f08c379a0000000000000000000000000000000000000000000000000000000008152600401610a1f90612894565b60405180910390fd5b610a328282611b6d565b5050565b610a408282611cb6565b5050565b600080610a4f61174a565b1415610b1f57600860009054906101000a900473ffffffffffffffffffffffffffffffffffffffff1673ffffffffffffffffffffffffffffffffffffffff166323b872dd3330856040518463ffffffff1660e01b8152600401610ab49392919061267c565b602060405180830381600087803b158015610ace57600080fd5b505af1158015610ae2573d6000803e3d6000fd5b505050506040513d601f19601f82011682018060405250810190610b0691906122a8565b506000479050610b163382611b6d565b80915050610d17565b60003447610b2d9190612a5e565b90506000610b3961174a565b90506000828234610b4a9190612a04565b610b5491906129d3565b905080851015610b99576040517f08c379a0000000000000000000000000000000000000000000000000000000008152600401610b9090612874565b60405180910390fd5b600860009054906101000a900473ffffffffffffffffffffffffffffffffffffffff1673ffffffffffffffffffffffffffffffffffffffff166323b872dd3330846040518463ffffffff1660e01b8152600401610bf89392919061267c565b602060405180830381600087803b158015610c1257600080fd5b505af1158015610c26573d6000803e3d6000fd5b505050506040513d601f19601f82011682018060405250810190610c4a91906122a8565b5060008334600860009054906101000a900473ffffffffffffffffffffffffffffffffffffffff1673ffffffffffffffffffffffffffffffffffffffff166318160ddd6040518163ffffffff1660e01b815260040160206040518083038186803b158015610cb757600080fd5b505afa158015610ccb573d6000803e3d6000fd5b505050506040513d601f19601f82011682018060405250810190610cef9190612302565b610cf99190612a04565b610d0391906129d3565b9050610d0f3382611b6d565b809450505050505b919050565b60008083118015610d2d5750600082115b610d6c576040517f08c379a0000000000000000000000000000000000000000000000000000000008152600401610d6390612814565b60405180910390fd5b816103e884610d7b9190612a04565b610d8591906129d3565b905092915050565b610d978133611cb6565b50565b60056020528060005260406000206000915090505481565b610dba611b65565b73ffffffffffffffffffffffffffffffffffffffff16610dd8610e3a565b73ffffffffffffffffffffffffffffffffffffffff1614610e2e576040517f08c379a0000000000000000000000000000000000000000000000000000000008152600401610e2590612834565b60405180910390fd5b610e386000611dd5565b565b60008060009054906101000a900473ffffffffffffffffffffffffffffffffffffffff16905090565b6000808211610ea7576040517f08c379a0000000000000000000000000000000000000000000000000000000008152600401610e9e906128b4565b60405180910390fd5b6000610eb161174a565b9050610ebe838247611e99565b915050919050565b60028054610ed390612b31565b80601f0160208091040260200160405190810160405280929190818152602001828054610eff90612b31565b8015610f4c5780601f10610f2157610100808354040283529160200191610f4c565b820191906000526020600020905b815481529060010190602001808311610f2f57829003601f168201915b505050505081565b600960009054906101000a900473ffffffffffffffffffffffffffffffffffffffff1681565b6000600960009054906101000a900473ffffffffffffffffffffffffffffffffffffffff1673ffffffffffffffffffffffffffffffffffffffff166306f2bf62836040518263ffffffff1660e01b8152600401610fd79190612661565b602060405180830381600087803b158015610ff157600080fd5b505af1158015611005573d6000803e3d6000fd5b505050506040513d601f19601f8201168201806040525081019061102991906121a8565b90503073ffffffffffffffffffffffffffffffffffffffff168173ffffffffffffffffffffffffffffffffffffffff16141580156110945750600073ffffffffffffffffffffffffffffffffffffffff168173ffffffffffffffffffffffffffffffffffffffff1614155b6110d3576040517f08c379a00000000000000000000000000000000000000000000000000000000081526004016110ca906127d4565b60405180910390fd5b60006110dd61174a565b905060006110ec868347611e99565b9050600860009054906101000a900473ffffffffffffffffffffffffffffffffffffffff1673ffffffffffffffffffffffffffffffffffffffff166323b872dd3330896040518463ffffffff1660e01b815260040161114d9392919061267c565b602060405180830381600087803b15801561116757600080fd5b505af115801561117b573d6000803e3d6000fd5b505050506040513d601f19601f8201168201806040525081019061119f91906122a8565b508273ffffffffffffffffffffffffffffffffffffffff1663424447ea8287336040518463ffffffff1660e01b81526004016111dc92919061290f565b6000604051808303818588803b1580156111f557600080fd5b505af1158015611209573d6000803e3d6000fd5b5050505050505050505050565b6000806000831161125c576040517f08c379a0000000000000000000000000000000000000000000000000000000008152600401611253906127f4565b60405180910390fd5b6000600860009054906101000a900473ffffffffffffffffffffffffffffffffffffffff1673ffffffffffffffffffffffffffffffffffffffff166318160ddd6040518163ffffffff1660e01b815260040160206040518083038186803b1580156112c657600080fd5b505afa1580156112da573d6000803e3d6000fd5b505050506040513d601f19601f820116820180604052508101906112fe9190612302565b844761130a9190612a04565b61131491906129d3565b90506000600860009054906101000a900473ffffffffffffffffffffffffffffffffffffffff1673ffffffffffffffffffffffffffffffffffffffff166318160ddd6040518163ffffffff1660e01b815260040160206040518083038186803b15801561138057600080fd5b505afa158015611394573d6000803e3d6000fd5b505050506040513d601f19601f820116820180604052508101906113b89190612302565b856113c161174a565b6113cb9190612a04565b6113d591906129d3565b90506113e13386611f51565b3373ffffffffffffffffffffffffffffffffffffffff166108fc839081150290604051600060405180830381858888f19350505050158015611427573d6000803e3d6000fd5b50600860009054906101000a900473ffffffffffffffffffffffffffffffffffffffff1673ffffffffffffffffffffffffffffffffffffffff1663a9059cbb33836040518363ffffffff1660e01b81526004016114859291906126b3565b602060405180830381600087803b15801561149f57600080fd5b505af11580156114b3573d6000803e3d6000fd5b505050506040513d601f19601f820116820180604052508101906114d791906122a8565b508181935093505050915091565b600760009054906101000a900473ffffffffffffffffffffffffffffffffffffffff1681565b600073ffffffffffffffffffffffffffffffffffffffff168273ffffffffffffffffffffffffffffffffffffffff16141561157b576040517f08c379a000000000000000000000000000000000000000000000000000000000815260040161157290612734565b60405180910390fd5b6115858282611f51565b5050565b600061159361174a565b905060006115a2848347611e99565b9050828110156115e7576040517f08c379a00000000000000000000000000000000000000000000000000000000081526004016115de90612794565b60405180910390fd5b600860009054906101000a900473ffffffffffffffffffffffffffffffffffffffff1673ffffffffffffffffffffffffffffffffffffffff166323b872dd3330876040518463ffffffff1660e01b81526004016116469392919061267c565b602060405180830381600087803b15801561166057600080fd5b505af1158015611674573d6000803e3d6000fd5b505050506040513d601f19601f8201168201806040525081019061169891906122a8565b503373ffffffffffffffffffffffffffffffffffffffff166108fc829081150290604051600060405180830381858888f193505050501580156116df573d6000803e3d6000fd5b5050505050565b600081600560003373ffffffffffffffffffffffffffffffffffffffff1673ffffffffffffffffffffffffffffffffffffffff16815260200190815260200160002054101561173457600080fd5b61173f3384846119a2565b506001905092915050565b6000600760009054906101000a900473ffffffffffffffffffffffffffffffffffffffff1673ffffffffffffffffffffffffffffffffffffffff166370a08231306040518263ffffffff1660e01b81526004016117a79190612661565b60206040518083038186803b1580156117bf57600080fd5b505afa1580156117d3573d6000803e3d6000fd5b505050506040513d601f19601f820116820180604052508101906117f79190612302565b905090565b6000808211611840576040517f08c379a0000000000000000000000000000000000000000000000000000000008152600401611837906127b4565b60405180910390fd5b600061184a61174a565b9050611857834783611e99565b915050919050565b6006602052816000526040600020602052806000526040600020600091509150505481565b61188c611b65565b73ffffffffffffffffffffffffffffffffffffffff166118aa610e3a565b73ffffffffffffffffffffffffffffffffffffffff1614611900576040517f08c379a00000000000000000000000000000000000000000000000000000000081526004016118f790612834565b60405180910390fd5b600073ffffffffffffffffffffffffffffffffffffffff168173ffffffffffffffffffffffffffffffffffffffff161415611970576040517f08c379a000000000000000000000000000000000000000000000000000000000815260040161196790612754565b60405180910390fd5b61197981611dd5565b50565b600860009054906101000a900473ffffffffffffffffffffffffffffffffffffffff1681565b60008073ffffffffffffffffffffffffffffffffffffffff168373ffffffffffffffffffffffffffffffffffffffff1614156119dd57600080fd5b81600560008673ffffffffffffffffffffffffffffffffffffffff1673ffffffffffffffffffffffffffffffffffffffff16815260200190815260200160002054611a289190612a5e565b600560008673ffffffffffffffffffffffffffffffffffffffff1673ffffffffffffffffffffffffffffffffffffffff1681526020019081526020016000208190555081600560008573ffffffffffffffffffffffffffffffffffffffff1673ffffffffffffffffffffffffffffffffffffffff16815260200190815260200160002054611ab6919061297d565b600560008573ffffffffffffffffffffffffffffffffffffffff1673ffffffffffffffffffffffffffffffffffffffff168152602001908152602001600020819055508273ffffffffffffffffffffffffffffffffffffffff168473ffffffffffffffffffffffffffffffffffffffff167fddf252ad1be2c89b69c2b068fc378daa952ba7f163c4a11628f55a4df523b3ef84604051611b5691906128f4565b60405180910390a39392505050565b600033905090565b600073ffffffffffffffffffffffffffffffffffffffff168273ffffffffffffffffffffffffffffffffffffffff161415611bdd576040517f08c379a0000000000000000000000000000000000000000000000000000000008152600401611bd490612894565b60405180910390fd5b8060046000828254611bef919061297d565b9250508190555080600560008473ffffffffffffffffffffffffffffffffffffffff1673ffffffffffffffffffffffffffffffffffffffff1681526020019081526020016000206000828254611c45919061297d565b925050819055508173ffffffffffffffffffffffffffffffffffffffff16600073ffffffffffffffffffffffffffffffffffffffff167fddf252ad1be2c89b69c2b068fc378daa952ba7f163c4a11628f55a4df523b3ef83604051611caa91906128f4565b60405180910390a35050565b6000611cc061174a565b90506000611cda343447611cd49190612a5e565b84611e99565b905083811015611d1f576040517f08c379a0000000000000000000000000000000000000000000000000000000008152600401611d1690612854565b60405180910390fd5b600860009054906101000a900473ffffffffffffffffffffffffffffffffffffffff1673ffffffffffffffffffffffffffffffffffffffff1663a9059cbb84836040518363ffffffff1660e01b8152600401611d7c9291906126b3565b602060405180830381600087803b158015611d9657600080fd5b505af1158015611daa573d6000803e3d6000fd5b505050506040513d601f19601f82011682018060405250810190611dce91906122a8565b5050505050565b60008060009054906101000a900473ffffffffffffffffffffffffffffffffffffffff169050816000806101000a81548173ffffffffffffffffffffffffffffffffffffffff021916908373ffffffffffffffffffffffffffffffffffffffff1602179055508173ffffffffffffffffffffffffffffffffffffffff168173ffffffffffffffffffffffffffffffffffffffff167f8be0079c531659141344cd1fd0a4f28419497f9722a3daafe3b4186f6b6457e060405160405180910390a35050565b60008083118015611eaa5750600082115b611ee9576040517f08c379a0000000000000000000000000000000000000000000000000000000008152600401611ee0906128d4565b60405180910390fd5b6000606385611ef89190612a04565b905060008382611f089190612a04565b9050600082606487611f1a9190612a04565b611f24919061297d565b905080670de0b6b3a764000083611f3b9190612a04565b611f4591906129d3565b93505050509392505050565b600073ffffffffffffffffffffffffffffffffffffffff168273ffffffffffffffffffffffffffffffffffffffff161415611fc1576040517f08c379a0000000000000000000000000000000000000000000000000000000008152600401611fb890612734565b60405180910390fd5b6000600560008473ffffffffffffffffffffffffffffffffffffffff1673ffffffffffffffffffffffffffffffffffffffff16815260200190815260200160002054905081811015612048576040517f08c379a000000000000000000000000000000000000000000000000000000000815260040161203f90612774565b60405180910390fd5b818103600560008573ffffffffffffffffffffffffffffffffffffffff1673ffffffffffffffffffffffffffffffffffffffff1681526020019081526020016000208190555081600460008282546120a09190612a5e565b92505081905550600073ffffffffffffffffffffffffffffffffffffffff168373ffffffffffffffffffffffffffffffffffffffff167fddf252ad1be2c89b69c2b068fc378daa952ba7f163c4a11628f55a4df523b3ef8460405161210591906128f4565b60405180910390a3505050565b60008135905061212181612f74565b92915050565b60008151905061213681612f74565b92915050565b60008151905061214b81612f8b565b92915050565b60008135905061216081612fa2565b92915050565b60008151905061217581612fa2565b92915050565b60006020828403121561219157612190612bf0565b5b600061219f84828501612112565b91505092915050565b6000602082840312156121be576121bd612bf0565b5b60006121cc84828501612127565b91505092915050565b600080604083850312156121ec576121eb612bf0565b5b60006121fa85828601612112565b925050602061220b85828601612112565b9150509250929050565b60008060006060848603121561222e5761222d612bf0565b5b600061223c86828701612112565b935050602061224d86828701612112565b925050604061225e86828701612151565b9150509250925092565b6000806040838503121561227f5761227e612bf0565b5b600061228d85828601612112565b925050602061229e85828601612151565b9150509250929050565b6000602082840312156122be576122bd612bf0565b5b60006122cc8482850161213c565b91505092915050565b6000602082840312156122eb576122ea612bf0565b5b60006122f984828501612151565b91505092915050565b60006020828403121561231857612317612bf0565b5b600061232684828501612166565b91505092915050565b6000806040838503121561234657612345612bf0565b5b600061235485828601612151565b925050602061236585828601612112565b9150509250929050565b6000806040838503121561238657612385612bf0565b5b600061239485828601612151565b92505060206123a585828601612151565b9150509250929050565b6000806000606084860312156123c8576123c7612bf0565b5b60006123d686828701612151565b93505060206123e786828701612151565b92505060406123f886828701612112565b9150509250925092565b61240b81612a92565b82525050565b61241a81612aa4565b82525050565b61242981612ada565b82525050565b600061243a82612961565b612444818561296c565b9350612454818560208601612afe565b61245d81612bf5565b840191505092915050565b600061247560258361296c565b915061248082612c06565b604082019050919050565b600061249860268361296c565b91506124a382612c55565b604082019050919050565b60006124bb60288361296c565b91506124c682612ca4565b604082019050919050565b60006124de60168361296c565b91506124e982612cf3565b602082019050919050565b600061250160128361296c565b915061250c82612d1c565b602082019050919050565b600061252460428361296c565b915061252f82612d45565b606082019050919050565b6000612547601b8361296c565b915061255282612dba565b602082019050919050565b600061256a601c8361296c565b915061257582612de3565b602082019050919050565b600061258d60208361296c565b915061259882612e0c565b602082019050919050565b60006125b0602c8361296c565b91506125bb82612e35565b604082019050919050565b60006125d3602b8361296c565b91506125de82612e84565b604082019050919050565b60006125f660288361296c565b915061260182612ed3565b604082019050919050565b600061261960148361296c565b915061262482612f22565b602082019050919050565b600061263c60208361296c565b915061264782612f4b565b602082019050919050565b61265b81612ad0565b82525050565b60006020820190506126766000830184612402565b92915050565b60006060820190506126916000830186612402565b61269e6020830185612402565b6126ab6040830184612652565b949350505050565b60006040820190506126c86000830185612402565b6126d56020830184612652565b9392505050565b60006020820190506126f16000830184612411565b92915050565b600060208201905061270c6000830184612420565b92915050565b6000602082019050818103600083015261272c818461242f565b905092915050565b6000602082019050818103600083015261274d81612468565b9050919050565b6000602082019050818103600083015261276d8161248b565b9050919050565b6000602082019050818103600083015261278d816124ae565b9050919050565b600060208201905081810360008301526127ad816124d1565b9050919050565b600060208201905081810360008301526127cd816124f4565b9050919050565b600060208201905081810360008301526127ed81612517565b9050919050565b6000602082019050818103600083015261280d8161253a565b9050919050565b6000602082019050818103600083015261282d8161255d565b9050919050565b6000602082019050818103600083015261284d81612580565b9050919050565b6000602082019050818103600083015261286d816125a3565b9050919050565b6000602082019050818103600083015261288d816125c6565b9050919050565b600060208201905081810360008301526128ad816125e9565b9050919050565b600060208201905081810360008301526128cd8161260c565b9050919050565b600060208201905081810360008301526128ed8161262f565b9050919050565b60006020820190506129096000830184612652565b92915050565b60006040820190506129246000830185612652565b6129316020830184612402565b9392505050565b600060408201905061294d6000830185612652565b61295a6020830184612652565b9392505050565b600081519050919050565b600082825260208201905092915050565b600061298882612ad0565b915061299383612ad0565b9250827fffffffffffffffffffffffffffffffffffffffffffffffffffffffffffffffff038211156129c8576129c7612b63565b5b828201905092915050565b60006129de82612ad0565b91506129e983612ad0565b9250826129f9576129f8612b92565b5b828204905092915050565b6000612a0f82612ad0565b9150612a1a83612ad0565b9250817fffffffffffffffffffffffffffffffffffffffffffffffffffffffffffffffff0483118215151615612a5357612a52612b63565b5b828202905092915050565b6000612a6982612ad0565b9150612a7483612ad0565b925082821015612a8757612a86612b63565b5b828203905092915050565b6000612a9d82612ab0565b9050919050565b60008115159050919050565b600073ffffffffffffffffffffffffffffffffffffffff82169050919050565b6000819050919050565b6000612ae582612aec565b9050919050565b6000612af782612ab0565b9050919050565b60005b83811015612b1c578082015181840152602081019050612b01565b83811115612b2b576000848401525b50505050565b60006002820490506001821680612b4957607f821691505b60208210811415612b5d57612b5c612bc1565b5b50919050565b7f4e487b7100000000000000000000000000000000000000000000000000000000600052601160045260246000fd5b7f4e487b7100000000000000000000000000000000000000000000000000000000600052601260045260246000fd5b7f4e487b7100000000000000000000000000000000000000000000000000000000600052602260045260246000fd5b600080fd5b6000601f19601f8301169050919050565b7f43616e2774206275726e20746f6b656e7320617420746865207a65726f20616460008201527f6472657373000000000000000000000000000000000000000000000000000000602082015250565b7f4f776e61626c653a206e6577206f776e657220697320746865207a65726f206160008201527f6464726573730000000000000000000000000000000000000000000000000000602082015250565b7f43616e6e6f74206275726e206d6f7265207468616e2062616c616e6365206f6660008201527f206163636f756e74000000000000000000000000000000000000000000000000602082015250565b7f496e73756666696369656e74206c697175696469747900000000000000000000600082015250565b7f657468536f6c6420697320696e76616c69640000000000000000000000000000600082015250565b7f45786368616e67652061646472657373206d75737420657869737420616e642060008201527f63616e2774206265207468652073616d6520746f6b656e27732065786368616e60208201527f6765000000000000000000000000000000000000000000000000000000000000604082015250565b7f43616e27742072656d6f7665207a65726f206c69717569646974790000000000600082015250565b7f696e76616c696420696e7075742f6f7574707574207265736572766500000000600082015250565b7f4f776e61626c653a2063616c6c6572206973206e6f7420746865206f776e6572600082015250565b7f496e73756666696369656e74206c697175696469747920746f20706572666f7260008201527f6d20746869732074726164650000000000000000000000000000000000000000602082015250565b7f496e73756666696369656e7420746f6b656e206465706f73697420746f20616460008201527f64206c6971756964697479000000000000000000000000000000000000000000602082015250565b7f4d696e74696e6720746f207a65726f2061646472657373206275726e7320746860008201527f6520746f6b656e73000000000000000000000000000000000000000000000000602082015250565b7f746f6b656e536f6c6420697320696e76616c6964000000000000000000000000600082015250565b7f696e73756666696369656e74206574682f746f6b656e206c6971756964697479600082015250565b612f7d81612a92565b8114612f8857600080fd5b50565b612f9481612aa4565b8114612f9f57600080fd5b50565b612fab81612ad0565b8114612fb657600080fd5b5056fea26469706673582212202d571bd596b6929cdd4ed0f62d18ba692e9ecc4e1b38fbfb26ab89908babb62e64736f6c63430008060033a2646970667358221220a75b27a61c09b30267b2b780835fc541bed9796aceb5a804acd432bfa5fdd86164736f6c63430008060033",
  "linkReferences": {},
  "deployedLinkReferences": {}
}