{
  "_format": "hh-sol-artifact-1",
  "contractName": "Token",
  "sourceName": "contracts/Token.sol",
  "abi": [
    {
      "inputs": [
        {
          "internalType": "string",
          "name": "_name",
          "type": "string"
        },
        {
          "internalType": "string",
          "name": "_symbol",
          "type": "string"
        },
        {
          "internalType": "uint256",
          "name": "_decimals",
          "type": "uint256"
        },
        {
          "internalType": "uint256",
          "name": "_totalSupply",
          "type": "uint256"
        }
      ],
      "stateMutability": "nonpayable",
      "type": "constructor"
    },
    {
      "anonymous": false,
      "inputs": [
        {
          "indexed": true,
          "internalType": "address",
          "name": "owner",
          "type": "address"
        },
        {
          "indexed": true,
          "internalType": "address",
          "name": "spender",
          "type": "address"
        },
        {
          "indexed": false,
          "internalType": "uint256",
          "name": "value",
          "type": "uint256"
        }
      ],
      "name": "Approval",
      "type": "event"
    },
    {
      "anonymous": false,
      "inputs": [
        {
          "indexed": true,
          "internalType": "address",
          "name": "previousOwner",
          "type": "address"
        },
        {
          "indexed": true,
          "internalType": "address",
          "name": "newOwner",
          "type": "address"
        }
      ],
      "name": "OwnershipTransferred",
      "type": "event"
    },
    {
      "anonymous": false,
      "inputs": [
        {
          "indexed": true,
          "internalType": "address",
          "name": "from",
          "type": "address"
        },
        {
          "indexed": true,
          "internalType": "address",
          "name": "to",
          "type": "address"
        },
        {
          "indexed": false,
          "internalType": "uint256",
          "name": "value",
          "type": "uint256"
        }
      ],
      "name": "Transfer",
      "type": "event"
    },
    {
      "inputs": [
        {
          "internalType": "address",
          "name": "",
          "type": "address"
        },
        {
          "internalType": "address",
          "name": "",
          "type": "address"
        }
      ],
      "name": "allowance",
      "outputs": [
        {
          "internalType": "uint256",
          "name": "",
          "type": "uint256"
        }
      ],
      "stateMutability": "view",
      "type": "function"
    },
    {
      "inputs": [
        {
          "internalType": "address",
          "name": "_spender",
          "type": "address"
        },
        {
          "internalType": "uint256",
          "name": "_value",
          "type": "uint256"
        }
      ],
      "name": "approve",
      "outputs": [
        {
          "internalType": "bool",
          "name": "",
          "type": "bool"
        }
      ],
      "stateMutability": "nonpayable",
      "type": "function"
    },
    {
      "inputs": [
        {
          "internalType": "address",
          "name": "",
          "type": "address"
        }
      ],
      "name": "balanceOf",
      "outputs": [
        {
          "internalType": "uint256",
          "name": "",
          "type": "uint256"
        }
      ],
      "stateMutability": "view",
      "type": "function"
    },
    {
      "inputs": [
        {
          "internalType": "address",
          "name": "account",
          "type": "address"
        },
        {
          "internalType": "uint256",
          "name": "amount",
          "type": "uint256"
        }
      ],
      "name": "burn",
      "outputs": [],
      "stateMutability": "nonpayable",
      "type": "function"
    },
    {
      "inputs": [],
      "name": "decimals",
      "outputs": [
        {
          "internalType": "uint256",
          "name": "",
          "type": "uint256"
        }
      ],
      "stateMutability": "view",
      "type": "function"
    },
    {
      "inputs": [],
      "name": "getTotalSupply",
      "outputs": [
        {
          "internalType": "uint256",
          "name": "",
          "type": "uint256"
        }
      ],
      "stateMutability": "nonpayable",
      "type": "function"
    },
    {
      "inputs": [
        {
          "internalType": "address",
          "name": "account",
          "type": "address"
        },
        {
          "internalType": "uint256",
          "name": "amount",
          "type": "uint256"
        }
      ],
      "name": "mint",
      "outputs": [],
      "stateMutability": "nonpayable",
      "type": "function"
    },
    {
      "inputs": [],
      "name": "name",
      "outputs": [
        {
          "internalType": "string",
          "name": "",
          "type": "string"
        }
      ],
      "stateMutability": "view",
      "type": "function"
    },
    {
      "inputs": [],
      "name": "owner",
      "outputs": [
        {
          "internalType": "address",
          "name": "",
          "type": "address"
        }
      ],
      "stateMutability": "view",
      "type": "function"
    },
    {
      "inputs": [],
      "name": "renounceOwnership",
      "outputs": [],
      "stateMutability": "nonpayable",
      "type": "function"
    },
    {
      "inputs": [],
      "name": "symbol",
      "outputs": [
        {
          "internalType": "string",
          "name": "",
          "type": "string"
        }
      ],
      "stateMutability": "view",
      "type": "function"
    },
    {
      "inputs": [
        {
          "internalType": "address",
          "name": "_to",
          "type": "address"
        },
        {
          "internalType": "uint256",
          "name": "_value",
          "type": "uint256"
        }
      ],
      "name": "transfer",
      "outputs": [
        {
          "internalType": "bool",
          "name": "",
          "type": "bool"
        }
      ],
      "stateMutability": "nonpayable",
      "type": "function"
    },
    {
      "inputs": [
        {
          "internalType": "address",
          "name": "_from",
          "type": "address"
        },
        {
          "internalType": "address",
          "name": "_to",
          "type": "address"
        },
        {
          "internalType": "uint256",
          "name": "_value",
          "type": "uint256"
        }
      ],
      "name": "transferFrom",
      "outputs": [
        {
          "internalType": "bool",
          "name": "",
          "type": "bool"
        }
      ],
      "stateMutability": "nonpayable",
      "type": "function"
    },
    {
      "inputs": [
        {
          "internalType": "address",
          "name": "newOwner",
          "type": "address"
        }
      ],
      "name": "transferOwnership",
      "outputs": [],
      "stateMutability": "nonpayable",
      "type": "function"
    }
  ],
  "bytecode": "0x60806040523480156200001157600080fd5b5060405162001bb538038062001bb58339818101604052810190620000379190620002f8565b620000576200004b620000e760201b60201c565b620000ef60201b60201c565b83600190805190602001906200006f929190620001b3565b50826002908051906020019062000088929190620001b3565b508160038190555080600481905550600454600560003373ffffffffffffffffffffffffffffffffffffffff1673ffffffffffffffffffffffffffffffffffffffff168152602001908152602001600020819055505050505062000550565b600033905090565b60008060009054906101000a900473ffffffffffffffffffffffffffffffffffffffff169050816000806101000a81548173ffffffffffffffffffffffffffffffffffffffff021916908373ffffffffffffffffffffffffffffffffffffffff1602179055508173ffffffffffffffffffffffffffffffffffffffff168173ffffffffffffffffffffffffffffffffffffffff167f8be0079c531659141344cd1fd0a4f28419497f9722a3daafe3b4186f6b6457e060405160405180910390a35050565b828054620001c19062000447565b90600052602060002090601f016020900481019282620001e5576000855562000231565b82601f106200020057805160ff191683800117855562000231565b8280016001018555821562000231579182015b828111156200023057825182559160200191906001019062000213565b5b50905062000240919062000244565b5090565b5b808211156200025f57600081600090555060010162000245565b5090565b60006200027a6200027484620003d1565b620003a8565b90508281526020810184848401111562000299576200029862000516565b5b620002a684828562000411565b509392505050565b600082601f830112620002c657620002c562000511565b5b8151620002d884826020860162000263565b91505092915050565b600081519050620002f28162000536565b92915050565b6000806000806080858703121562000315576200031462000520565b5b600085015167ffffffffffffffff8111156200033657620003356200051b565b5b6200034487828801620002ae565b945050602085015167ffffffffffffffff8111156200036857620003676200051b565b5b6200037687828801620002ae565b93505060406200038987828801620002e1565b92505060606200039c87828801620002e1565b91505092959194509250565b6000620003b4620003c7565b9050620003c282826200047d565b919050565b6000604051905090565b600067ffffffffffffffff821115620003ef57620003ee620004e2565b5b620003fa8262000525565b9050602081019050919050565b6000819050919050565b60005b838110156200043157808201518184015260208101905062000414565b8381111562000441576000848401525b50505050565b600060028204905060018216806200046057607f821691505b60208210811415620004775762000476620004b3565b5b50919050565b620004888262000525565b810181811067ffffffffffffffff82111715620004aa57620004a9620004e2565b5b80604052505050565b7f4e487b7100000000000000000000000000000000000000000000000000000000600052602260045260246000fd5b7f4e487b7100000000000000000000000000000000000000000000000000000000600052604160045260246000fd5b600080fd5b600080fd5b600080fd5b600080fd5b6000601f19601f8301169050919050565b620005418162000407565b81146200054d57600080fd5b50565b61165580620005606000396000f3fe608060405234801561001057600080fd5b50600436106100ea5760003560e01c80638da5cb5b1161008c578063a9059cbb11610066578063a9059cbb14610239578063c4e41b2214610269578063dd62ed3e14610287578063f2fde38b146102b7576100ea565b80638da5cb5b146101e157806395d89b41146101ff5780639dc29fac1461021d576100ea565b8063313ce567116100c8578063313ce5671461016d57806340c10f191461018b57806370a08231146101a7578063715018a6146101d7576100ea565b806306fdde03146100ef578063095ea7b31461010d57806323b872dd1461013d575b600080fd5b6100f76102d3565b60405161010491906111e8565b60405180910390f35b6101276004803603810190610122919061105d565b610361565b60405161013491906111cd565b60405180910390f35b6101576004803603810190610152919061100a565b61048c565b60405161016491906111cd565b60405180910390f35b61017561057a565b60405161018291906112aa565b60405180910390f35b6101a560048036038101906101a0919061105d565b610580565b005b6101c160048036038101906101bc9190610f9d565b61067a565b6040516101ce91906112aa565b60405180910390f35b6101df610692565b005b6101e961071a565b6040516101f691906111b2565b60405180910390f35b610207610743565b60405161021491906111e8565b60405180910390f35b6102376004803603810190610232919061105d565b6107d1565b005b610253600480360381019061024e919061105d565b61084f565b60405161026091906111cd565b60405180910390f35b6102716108b3565b60405161027e91906112aa565b60405180910390f35b6102a1600480360381019061029c9190610fca565b6108bd565b6040516102ae91906112aa565b60405180910390f35b6102d160048036038101906102cc9190610f9d565b6108e2565b005b600180546102e0906113e6565b80601f016020809104026020016040519081016040528092919081815260200182805461030c906113e6565b80156103595780601f1061032e57610100808354040283529160200191610359565b820191906000526020600020905b81548152906001019060200180831161033c57829003601f168201915b505050505081565b60008073ffffffffffffffffffffffffffffffffffffffff168373ffffffffffffffffffffffffffffffffffffffff16141561039c57600080fd5b81600660003373ffffffffffffffffffffffffffffffffffffffff1673ffffffffffffffffffffffffffffffffffffffff16815260200190815260200160002060008573ffffffffffffffffffffffffffffffffffffffff1673ffffffffffffffffffffffffffffffffffffffff168152602001908152602001600020819055508273ffffffffffffffffffffffffffffffffffffffff163373ffffffffffffffffffffffffffffffffffffffff167f8c5be1e5ebec7d5bd14f71427d1e84f3dd0314c0f7b2291e5b200ac8c7c3b9258460405161047a91906112aa565b60405180910390a36001905092915050565b6000600560008573ffffffffffffffffffffffffffffffffffffffff1673ffffffffffffffffffffffffffffffffffffffff168152602001908152602001600020548211156104da57600080fd5b600660008573ffffffffffffffffffffffffffffffffffffffff1673ffffffffffffffffffffffffffffffffffffffff16815260200190815260200160002060003373ffffffffffffffffffffffffffffffffffffffff1673ffffffffffffffffffffffffffffffffffffffff1681526020019081526020016000205482111561056357600080fd5b61056e8484846109da565b50600190509392505050565b60035481565b610588610b9d565b73ffffffffffffffffffffffffffffffffffffffff166105a661071a565b73ffffffffffffffffffffffffffffffffffffffff16146105fc576040517f08c379a00000000000000000000000000000000000000000000000000000000081526004016105f39061126a565b60405180910390fd5b600073ffffffffffffffffffffffffffffffffffffffff168273ffffffffffffffffffffffffffffffffffffffff16141561066c576040517f08c379a00000000000000000000000000000000000000000000000000000000081526004016106639061128a565b60405180910390fd5b6106768282610ba5565b5050565b60056020528060005260406000206000915090505481565b61069a610b9d565b73ffffffffffffffffffffffffffffffffffffffff166106b861071a565b73ffffffffffffffffffffffffffffffffffffffff161461070e576040517f08c379a00000000000000000000000000000000000000000000000000000000081526004016107059061126a565b60405180910390fd5b6107186000610cee565b565b60008060009054906101000a900473ffffffffffffffffffffffffffffffffffffffff16905090565b60028054610750906113e6565b80601f016020809104026020016040519081016040528092919081815260200182805461077c906113e6565b80156107c95780601f1061079e576101008083540402835291602001916107c9565b820191906000526020600020905b8154815290600101906020018083116107ac57829003601f168201915b505050505081565b600073ffffffffffffffffffffffffffffffffffffffff168273ffffffffffffffffffffffffffffffffffffffff161415610841576040517f08c379a00000000000000000000000000000000000000000000000000000000081526004016108389061120a565b60405180910390fd5b61084b8282610db2565b5050565b600081600560003373ffffffffffffffffffffffffffffffffffffffff1673ffffffffffffffffffffffffffffffffffffffff16815260200190815260200160002054101561089d57600080fd5b6108a83384846109da565b506001905092915050565b6000600454905090565b6006602052816000526040600020602052806000526040600020600091509150505481565b6108ea610b9d565b73ffffffffffffffffffffffffffffffffffffffff1661090861071a565b73ffffffffffffffffffffffffffffffffffffffff161461095e576040517f08c379a00000000000000000000000000000000000000000000000000000000081526004016109559061126a565b60405180910390fd5b600073ffffffffffffffffffffffffffffffffffffffff168173ffffffffffffffffffffffffffffffffffffffff1614156109ce576040517f08c379a00000000000000000000000000000000000000000000000000000000081526004016109c59061122a565b60405180910390fd5b6109d781610cee565b50565b60008073ffffffffffffffffffffffffffffffffffffffff168373ffffffffffffffffffffffffffffffffffffffff161415610a1557600080fd5b81600560008673ffffffffffffffffffffffffffffffffffffffff1673ffffffffffffffffffffffffffffffffffffffff16815260200190815260200160002054610a609190611337565b600560008673ffffffffffffffffffffffffffffffffffffffff1673ffffffffffffffffffffffffffffffffffffffff1681526020019081526020016000208190555081600560008573ffffffffffffffffffffffffffffffffffffffff1673ffffffffffffffffffffffffffffffffffffffff16815260200190815260200160002054610aee91906112e1565b600560008573ffffffffffffffffffffffffffffffffffffffff1673ffffffffffffffffffffffffffffffffffffffff168152602001908152602001600020819055508273ffffffffffffffffffffffffffffffffffffffff168473ffffffffffffffffffffffffffffffffffffffff167fddf252ad1be2c89b69c2b068fc378daa952ba7f163c4a11628f55a4df523b3ef84604051610b8e91906112aa565b60405180910390a39392505050565b600033905090565b600073ffffffffffffffffffffffffffffffffffffffff168273ffffffffffffffffffffffffffffffffffffffff161415610c15576040517f08c379a0000000000000000000000000000000000000000000000000000000008152600401610c0c9061128a565b60405180910390fd5b8060046000828254610c2791906112e1565b9250508190555080600560008473ffffffffffffffffffffffffffffffffffffffff1673ffffffffffffffffffffffffffffffffffffffff1681526020019081526020016000206000828254610c7d91906112e1565b925050819055508173ffffffffffffffffffffffffffffffffffffffff16600073ffffffffffffffffffffffffffffffffffffffff167fddf252ad1be2c89b69c2b068fc378daa952ba7f163c4a11628f55a4df523b3ef83604051610ce291906112aa565b60405180910390a35050565b60008060009054906101000a900473ffffffffffffffffffffffffffffffffffffffff169050816000806101000a81548173ffffffffffffffffffffffffffffffffffffffff021916908373ffffffffffffffffffffffffffffffffffffffff1602179055508173ffffffffffffffffffffffffffffffffffffffff168173ffffffffffffffffffffffffffffffffffffffff167f8be0079c531659141344cd1fd0a4f28419497f9722a3daafe3b4186f6b6457e060405160405180910390a35050565b600073ffffffffffffffffffffffffffffffffffffffff168273ffffffffffffffffffffffffffffffffffffffff161415610e22576040517f08c379a0000000000000000000000000000000000000000000000000000000008152600401610e199061120a565b60405180910390fd5b6000600560008473ffffffffffffffffffffffffffffffffffffffff1673ffffffffffffffffffffffffffffffffffffffff16815260200190815260200160002054905081811015610ea9576040517f08c379a0000000000000000000000000000000000000000000000000000000008152600401610ea09061124a565b60405180910390fd5b818103600560008573ffffffffffffffffffffffffffffffffffffffff1673ffffffffffffffffffffffffffffffffffffffff168152602001908152602001600020819055508160046000828254610f019190611337565b92505081905550600073ffffffffffffffffffffffffffffffffffffffff168373ffffffffffffffffffffffffffffffffffffffff167fddf252ad1be2c89b69c2b068fc378daa952ba7f163c4a11628f55a4df523b3ef84604051610f6691906112aa565b60405180910390a3505050565b600081359050610f82816115f1565b92915050565b600081359050610f9781611608565b92915050565b600060208284031215610fb357610fb2611476565b5b6000610fc184828501610f73565b91505092915050565b60008060408385031215610fe157610fe0611476565b5b6000610fef85828601610f73565b925050602061100085828601610f73565b9150509250929050565b60008060006060848603121561102357611022611476565b5b600061103186828701610f73565b935050602061104286828701610f73565b925050604061105386828701610f88565b9150509250925092565b6000806040838503121561107457611073611476565b5b600061108285828601610f73565b925050602061109385828601610f88565b9150509250929050565b6110a68161136b565b82525050565b6110b58161137d565b82525050565b60006110c6826112c5565b6110d081856112d0565b93506110e08185602086016113b3565b6110e98161147b565b840191505092915050565b60006111016025836112d0565b915061110c8261148c565b604082019050919050565b60006111246026836112d0565b915061112f826114db565b604082019050919050565b60006111476028836112d0565b91506111528261152a565b604082019050919050565b600061116a6020836112d0565b915061117582611579565b602082019050919050565b600061118d6028836112d0565b9150611198826115a2565b604082019050919050565b6111ac816113a9565b82525050565b60006020820190506111c7600083018461109d565b92915050565b60006020820190506111e260008301846110ac565b92915050565b6000602082019050818103600083015261120281846110bb565b905092915050565b60006020820190508181036000830152611223816110f4565b9050919050565b6000602082019050818103600083015261124381611117565b9050919050565b600060208201905081810360008301526112638161113a565b9050919050565b600060208201905081810360008301526112838161115d565b9050919050565b600060208201905081810360008301526112a381611180565b9050919050565b60006020820190506112bf60008301846111a3565b92915050565b600081519050919050565b600082825260208201905092915050565b60006112ec826113a9565b91506112f7836113a9565b9250827fffffffffffffffffffffffffffffffffffffffffffffffffffffffffffffffff0382111561132c5761132b611418565b5b828201905092915050565b6000611342826113a9565b915061134d836113a9565b9250828210156113605761135f611418565b5b828203905092915050565b600061137682611389565b9050919050565b60008115159050919050565b600073ffffffffffffffffffffffffffffffffffffffff82169050919050565b6000819050919050565b60005b838110156113d15780820151818401526020810190506113b6565b838111156113e0576000848401525b50505050565b600060028204905060018216806113fe57607f821691505b6020821081141561141257611411611447565b5b50919050565b7f4e487b7100000000000000000000000000000000000000000000000000000000600052601160045260246000fd5b7f4e487b7100000000000000000000000000000000000000000000000000000000600052602260045260246000fd5b600080fd5b6000601f19601f8301169050919050565b7f43616e2774206275726e20746f6b656e7320617420746865207a65726f20616460008201527f6472657373000000000000000000000000000000000000000000000000000000602082015250565b7f4f776e61626c653a206e6577206f776e657220697320746865207a65726f206160008201527f6464726573730000000000000000000000000000000000000000000000000000602082015250565b7f43616e6e6f74206275726e206d6f7265207468616e2062616c616e6365206f6660008201527f206163636f756e74000000000000000000000000000000000000000000000000602082015250565b7f4f776e61626c653a2063616c6c6572206973206e6f7420746865206f776e6572600082015250565b7f4d696e74696e6720746f207a65726f2061646472657373206275726e7320746860008201527f6520746f6b656e73000000000000000000000000000000000000000000000000602082015250565b6115fa8161136b565b811461160557600080fd5b50565b611611816113a9565b811461161c57600080fd5b5056fea2646970667358221220669194e110b1a7363201bffbc813fa24b2773a45721ec52bc9c11de09a0af83c64736f6c63430008060033",
  "linkReferences": {},
  "deployedLinkReferences": {}
}